{
    "abi": [
        {
            "type": "constructor",
            "inputs": [],
            "stateMutability": "nonpayable"
        },
        {
            "type": "function",
            "name": "BLACKLISTER_ROLE",
            "inputs": [],
            "outputs": [
                {
                    "name": "",
                    "type": "bytes32",
                    "internalType": "bytes32"
                }
            ],
            "stateMutability": "view"
        },
        {
            "type": "function",
            "name": "BLACKLISTER_addAccountBlacklist",
            "inputs": [
                {
                    "name": "accounts",
                    "type": "address[]",
                    "internalType": "address[]"
                }
            ],
            "outputs": [],
            "stateMutability": "nonpayable"
        },
        {
            "type": "function",
            "name": "BLACKLISTER_delAccountBlacklist",
            "inputs": [
                {
                    "name": "accounts",
                    "type": "address[]",
                    "internalType": "address[]"
                }
            ],
            "outputs": [],
            "stateMutability": "nonpayable"
        },
        {
            "type": "function",
            "name": "DEFAULT_ADMIN_ROLE",
            "inputs": [],
            "outputs": [
                {
                    "name": "",
                    "type": "bytes32",
                    "internalType": "bytes32"
                }
            ],
            "stateMutability": "view"
        },
        {
            "type": "function",
            "name": "accountBlacklistAt",
            "inputs": [
                {
                    "name": "index",
                    "type": "uint256",
                    "internalType": "uint256"
                }
            ],
            "outputs": [
                {
                    "name": "",
                    "type": "address",
                    "internalType": "address"
                }
            ],
            "stateMutability": "view"
        },
        {
            "type": "function",
            "name": "accountBlacklistCount",
            "inputs": [],
            "outputs": [
                {
                    "name": "",
                    "type": "uint256",
                    "internalType": "uint256"
                }
            ],
            "stateMutability": "view"
        },
        {
            "type": "function",
            "name": "getRoleAdmin",
            "inputs": [
                {
                    "name": "role",
                    "type": "bytes32",
                    "internalType": "bytes32"
                }
            ],
            "outputs": [
                {
                    "name": "",
                    "type": "bytes32",
                    "internalType": "bytes32"
                }
            ],
            "stateMutability": "view"
        },
        {
            "type": "function",
            "name": "getRoleMember",
            "inputs": [
                {
                    "name": "role",
                    "type": "bytes32",
                    "internalType": "bytes32"
                },
                {
                    "name": "index",
                    "type": "uint256",
                    "internalType": "uint256"
                }
            ],
            "outputs": [
                {
                    "name": "",
                    "type": "address",
                    "internalType": "address"
                }
            ],
            "stateMutability": "view"
        },
        {
            "type": "function",
            "name": "getRoleMemberCount",
            "inputs": [
                {
                    "name": "role",
                    "type": "bytes32",
                    "internalType": "bytes32"
                }
            ],
            "outputs": [
                {
                    "name": "",
                    "type": "uint256",
                    "internalType": "uint256"
                }
            ],
            "stateMutability": "view"
        },
        {
            "type": "function",
            "name": "grantRole",
            "inputs": [
                {
                    "name": "role",
                    "type": "bytes32",
                    "internalType": "bytes32"
                },
                {
                    "name": "account",
                    "type": "address",
                    "internalType": "address"
                }
            ],
            "outputs": [],
            "stateMutability": "nonpayable"
        },
        {
            "type": "function",
            "name": "hasRole",
            "inputs": [
                {
                    "name": "role",
                    "type": "bytes32",
                    "internalType": "bytes32"
                },
                {
                    "name": "account",
                    "type": "address",
                    "internalType": "address"
                }
            ],
            "outputs": [
                {
                    "name": "",
                    "type": "bool",
                    "internalType": "bool"
                }
            ],
            "stateMutability": "view"
        },
        {
            "type": "function",
            "name": "isAccountBlacklisted",
            "inputs": [
                {
                    "name": "account",
                    "type": "address",
                    "internalType": "address"
                }
            ],
            "outputs": [
                {
                    "name": "",
                    "type": "bool",
                    "internalType": "bool"
                }
            ],
            "stateMutability": "view"
        },
        {
            "type": "function",
            "name": "renounceRole",
            "inputs": [
                {
                    "name": "role",
                    "type": "bytes32",
                    "internalType": "bytes32"
                },
                {
                    "name": "callerConfirmation",
                    "type": "address",
                    "internalType": "address"
                }
            ],
            "outputs": [],
            "stateMutability": "nonpayable"
        },
        {
            "type": "function",
            "name": "revertIfAccountBlacklisted",
            "inputs": [
                {
                    "name": "token",
                    "type": "address",
                    "internalType": "address"
                }
            ],
            "outputs": [],
            "stateMutability": "view"
        },
        {
            "type": "function",
            "name": "revokeRole",
            "inputs": [
                {
                    "name": "role",
                    "type": "bytes32",
                    "internalType": "bytes32"
                },
                {
                    "name": "account",
                    "type": "address",
                    "internalType": "address"
                }
            ],
            "outputs": [],
            "stateMutability": "nonpayable"
        },
        {
            "type": "function",
            "name": "supportsInterface",
            "inputs": [
                {
                    "name": "interfaceId",
                    "type": "bytes4",
                    "internalType": "bytes4"
                }
            ],
            "outputs": [
                {
                    "name": "",
                    "type": "bool",
                    "internalType": "bool"
                }
            ],
            "stateMutability": "view"
        },
        {
            "type": "event",
            "name": "BlacklistAdd",
            "inputs": [
                {
                    "name": "account",
                    "type": "address",
                    "indexed": false,
                    "internalType": "address"
                }
            ],
            "anonymous": false
        },
        {
            "type": "event",
            "name": "BlacklistDel",
            "inputs": [
                {
                    "name": "account",
                    "type": "address",
                    "indexed": false,
                    "internalType": "address"
                }
            ],
            "anonymous": false
        },
        {
            "type": "event",
            "name": "RoleAdminChanged",
            "inputs": [
                {
                    "name": "role",
                    "type": "bytes32",
                    "indexed": true,
                    "internalType": "bytes32"
                },
                {
                    "name": "previousAdminRole",
                    "type": "bytes32",
                    "indexed": true,
                    "internalType": "bytes32"
                },
                {
                    "name": "newAdminRole",
                    "type": "bytes32",
                    "indexed": true,
                    "internalType": "bytes32"
                }
            ],
            "anonymous": false
        },
        {
            "type": "event",
            "name": "RoleGranted",
            "inputs": [
                {
                    "name": "role",
                    "type": "bytes32",
                    "indexed": true,
                    "internalType": "bytes32"
                },
                {
                    "name": "account",
                    "type": "address",
                    "indexed": true,
                    "internalType": "address"
                },
                {
                    "name": "sender",
                    "type": "address",
                    "indexed": true,
                    "internalType": "address"
                }
            ],
            "anonymous": false
        },
        {
            "type": "event",
            "name": "RoleRevoked",
            "inputs": [
                {
                    "name": "role",
                    "type": "bytes32",
                    "indexed": true,
                    "internalType": "bytes32"
                },
                {
                    "name": "account",
                    "type": "address",
                    "indexed": true,
                    "internalType": "address"
                },
                {
                    "name": "sender",
                    "type": "address",
                    "indexed": true,
                    "internalType": "address"
                }
            ],
            "anonymous": false
        },
        {
            "type": "error",
            "name": "AccessControlBadConfirmation",
            "inputs": []
        },
        {
            "type": "error",
            "name": "AccessControlUnauthorizedAccount",
            "inputs": [
                {
                    "name": "account",
                    "type": "address",
                    "internalType": "address"
                },
                {
                    "name": "neededRole",
                    "type": "bytes32",
                    "internalType": "bytes32"
                }
            ]
        },
        {
            "type": "error",
            "name": "Blacklisted",
            "inputs": [
                {
                    "name": "account",
                    "type": "address",
                    "internalType": "address"
                }
            ]
        }
    ],
    "bytecode": {
        "object": "0x60806040523461005f5761001233610064565b610026575b604051610c3d908161017f8239f35b600080526001602052610059337fa6eef7e35abe7026729641147f7915573c7e97b47efa546f5f6e3230263bcb496100f4565b50610017565b600080fd5b6001600160a01b031660008181527fad3228b676f7d3cd4284a5443f17f1962b36e491b30a40b2405849e597ba5fb5602052604081205490919060ff166100f057818052816020526040822081835260205260408220600160ff1982541617905533917f2f8788117e7eff1d82e926ec794901d17c78024a50270940304540a733656f0d8180a4600190565b5090565b919060018301600090828252806020526040822054156000146101785784549468010000000000000000861015610164576001860180825586101561015057836040949596828552602085200155549382526020522055600190565b634e487b7160e01b83526032600452602483fd5b634e487b7160e01b83526041600452602483fd5b5092505056fe608060408181526004918236101561001657600080fd5b600092833560e01c91826301ffc9a71461069f575081630f1d76c1146106705781631ed5d780146105d4578163248a9ca3146105aa5781632f2ff15d1461053f57816336568abe146104f9578163599b16f81461043c5781635c3f10e11461035f57816369e5cab41461026f5781639010d07c1461022e57816391d14854146101e8578163a217fddf146101cd578163acdc7bf71461017d578163ca15c87314610155578163d547741f14610112575063f515e6f2146100d557600080fd5b3461010e578160031936011261010e57602090517f98db8a220cd0f09badce9f22d0ba7e93edb3d404448cc3560d391ab096ad16e98152f35b5080fd5b9190503461015157806003193601126101515761014d91356101486001610137610727565b938387528660205286200154610921565b610947565b5080f35b8280fd5b9050346101515760203660031901126101515760209282913581526001845220549051908152f35b9050346101515760203660031901126101515761019861070c565b916101a2836107d6565b6101aa578380f35b516001620b633d60e31b031981526001600160a01b039092169082015260249150fd5b50503461010e578160031936011261010e5751908152602090f35b9050346101515781600319360112610151578160209360ff92610209610727565b903582528186528282206001600160a01b039091168252855220549151911615158152f35b9050346101515781600319360112610151576020926102599135815260018452826024359120610a75565b905491519160018060a01b039160031b1c168152f35b91905034610151576102803661073d565b61028b9391936108a7565b73__$e9c5829c6e82ebd2c05434c3554e8081a3$__93855b8281106102ae578680f35b6102c16102bc82858561086d565b610893565b863b1561035b5785516386f92b8d60e01b81526002868201526001600160a01b03918216602482015288816044818b5af4801561035157600193927f25a41c98a85bcd083c1ccaf3b379105c651bb997517897507e42370680220d0792602092610342575b506103356102bc85898961086d565b895191168152a1016102a3565b61034b9061078a565b38610326565b87513d8b823e3d90fd5b8780fd5b91905034610151576103703661073d565b61037b9391936108a7565b73__$e9c5829c6e82ebd2c05434c3554e8081a3$__93855b82811061039e578680f35b6103ac6102bc82858561086d565b863b1561035b57855163aa43630360e01b81526002868201526001600160a01b03918216602482015288816044818b5af4801561035157600193927f7a03ea7eb40e97cfdee89cf6f18808a27ebeccb5e8c028b07d650c205e9345389260209261042d575b506104206102bc85898961086d565b895191168152a101610393565b6104369061078a565b38610411565b9190503461015157602092836003193601126104e3578151633b33ed8560e21b815260028482015292356024840152838360448173__$e9c5829c6e82ebd2c05434c3554e8081a3$__5af49283156104ed5781936104a7575b5050516001600160a01b039091168152f35b909192508381813d83116104e6575b6104c081836107b4565b8101031261010e5751906001600160a01b03821682036104e35750903880610495565b80fd5b503d6104b6565b509051903d90823e3d90fd5b83833461010e578060031936011261010e57610513610727565b90336001600160a01b03831603610530575061014d919235610947565b5163334bd91960e11b81528390fd5b905034610151578160031936011261015157359061055b610727565b908284528360205261057260018286200154610921565b61057c8284610982565b610584578380f35b91835260016020529082206105a2916001600160a01b031690610a8d565b503880808380f35b90503461015157602036600319011261015157816020936001923581528085522001549051908152f35b919050346101515782600319360112610151576002815192631a5ad80b60e21b845283015260208260248173__$e9c5829c6e82ebd2c05434c3554e8081a3$__5af491821561066657839261062e575b6020838351908152f35b9091506020813d60201161065e575b8161064a602093836107b4565b810103126101515760209250519038610624565b3d915061063d565b81513d85823e3d90fd5b50503461010e57602036600319011261010e5760209061069661069161070c565b6107d6565b90519015158152f35b849134610151576020366003190112610151573563ffffffff60e01b81168091036101515760209250635a05180f60e01b81149081156106e1575b5015158152f35b637965db0b60e01b8114915081156106fb575b50836106da565b6301ffc9a760e01b149050836106f4565b600435906001600160a01b038216820361072257565b600080fd5b602435906001600160a01b038216820361072257565b9060206003198301126107225760043567ffffffffffffffff9283821161072257806023830112156107225781600401359384116107225760248460051b83010111610722576024019190565b67ffffffffffffffff811161079e57604052565b634e487b7160e01b600052604160045260246000fd5b90601f8019910116810190811067ffffffffffffffff82111761079e57604052565b604051632cf8048d60e21b8152600260048201526001600160a01b03909116602482015260208160448173__$e9c5829c6e82ebd2c05434c3554e8081a3$__5af49081156108615760009161082f575b50600019141590565b90506020813d602011610859575b8161084a602093836107b4565b81010312610722575138610826565b3d915061083d565b6040513d6000823e3d90fd5b919081101561087d5760051b0190565b634e487b7160e01b600052603260045260246000fd5b356001600160a01b03811681036107225790565b3360009081527f7d96e64ce10c6317f614432e6adb77ad96109e0c2a08dfd9e2e12906c1e5bf6b60205260409020547f98db8a220cd0f09badce9f22d0ba7e93edb3d404448cc3560d391ab096ad16e99060ff16156109035750565b6044906040519063e2517d3f60e01b82523360048301526024820152fd5b80600052600060205260406000203360005260205260ff60406000205416156109035750565b6109518282610a00565b918261095c57505090565b60009182526001602052604090912061097e916001600160a01b031690610b17565b5090565b9060009180835282602052604083209160018060a01b03169182845260205260ff604084205416156000146109fb57808352826020526040832082845260205260408320600160ff198254161790557f2f8788117e7eff1d82e926ec794901d17c78024a50270940304540a733656f0d339380a4600190565b505090565b9060009180835282602052604083209160018060a01b03169182845260205260ff6040842054166000146109fb5780835282602052604083208284526020526040832060ff1981541690557ff6391f5c32d9c69d2a47ea670b442974b53935d1edc7fd64eb21e047a839171b339380a4600190565b805482101561087d5760005260206000200190600090565b91906001830160009082825280602052604082205415600014610b115784549468010000000000000000861015610afd5783610aed610ad6886001604098999a01855584610a75565b819391549060031b91821b91600019901b19161790565b9055549382526020522055600190565b634e487b7160e01b83526041600452602483fd5b50925050565b90600182019060009281845282602052604084205490811515600014610c005760001991808301818111610bec57825490848201918211610bd857818103610ba3575b50505080548015610b8f57820191610b728383610a75565b909182549160031b1b191690555582526020526040812055600190565b634e487b7160e01b86526031600452602486fd5b610bc3610bb3610ad69386610a75565b90549060031b1c92839286610a75565b90558652846020526040862055388080610b5a565b634e487b7160e01b88526011600452602488fd5b634e487b7160e01b87526011600452602487fd5b505050509056fea2646970667358221220fb0e60d3bbe80f2628431d644f3a3549bb6bcad1bfa14d20b10210764cb4c4e864736f6c63430008170033",
        "linkReferences": {
            "src/lib/IterableArrayWithoutDuplicateKeys.sol": {
                "IterableArrayWithoutDuplicateKeys": [
                    {
                        "start": 1036,
                        "length": 20
                    },
                    {
                        "start": 1276,
                        "length": 20
                    },
                    {
                        "start": 1521,
                        "length": 20
                    },
                    {
                        "start": 1920,
                        "length": 20
                    },
                    {
                        "start": 2433,
                        "length": 20
                    }
                ]
            }
        }
    },
    "methodIdentifiers": {
        "BLACKLISTER_ROLE()": "f515e6f2",
        "BLACKLISTER_addAccountBlacklist(address[])": "5c3f10e1",
        "BLACKLISTER_delAccountBlacklist(address[])": "69e5cab4",
        "DEFAULT_ADMIN_ROLE()": "a217fddf",
        "accountBlacklistAt(uint256)": "599b16f8",
        "accountBlacklistCount()": "1ed5d780",
        "getRoleAdmin(bytes32)": "248a9ca3",
        "getRoleMember(bytes32,uint256)": "9010d07c",
        "getRoleMemberCount(bytes32)": "ca15c873",
        "grantRole(bytes32,address)": "2f2ff15d",
        "hasRole(bytes32,address)": "91d14854",
        "isAccountBlacklisted(address)": "0f1d76c1",
        "renounceRole(bytes32,address)": "36568abe",
        "revertIfAccountBlacklisted(address)": "acdc7bf7",
        "revokeRole(bytes32,address)": "d547741f",
        "supportsInterface(bytes4)": "01ffc9a7"
    },
    "id": 78
}