{
    "abi": [
        {
            "type": "constructor",
            "inputs": [
                {
                    "name": "_governance",
                    "type": "address",
                    "internalType": "address"
                },
                {
                    "name": "_blacklist",
                    "type": "address",
                    "internalType": "contract TenXBlacklistV2"
                },
                {
                    "name": "_czusd",
                    "type": "address",
                    "internalType": "contract IERC20Mintable"
                },
                {
                    "name": "_ammRouter",
                    "type": "address",
                    "internalType": "contract IAmmRouter02"
                },
                {
                    "name": "_ammFactory",
                    "type": "address",
                    "internalType": "contract IAmmFactory"
                },
                {
                    "name": "_ammZapV1",
                    "type": "address",
                    "internalType": "contract AmmZapV1"
                }
            ],
            "stateMutability": "nonpayable"
        },
        {
            "type": "function",
            "name": "DEFAULT_ADMIN_ROLE",
            "inputs": [],
            "outputs": [
                {
                    "name": "",
                    "type": "bytes32",
                    "internalType": "bytes32"
                }
            ],
            "stateMutability": "view"
        },
        {
            "type": "function",
            "name": "ammFactory",
            "inputs": [],
            "outputs": [
                {
                    "name": "",
                    "type": "address",
                    "internalType": "contract IAmmFactory"
                }
            ],
            "stateMutability": "view"
        },
        {
            "type": "function",
            "name": "ammRouter",
            "inputs": [],
            "outputs": [
                {
                    "name": "",
                    "type": "address",
                    "internalType": "contract IAmmRouter02"
                }
            ],
            "stateMutability": "view"
        },
        {
            "type": "function",
            "name": "ammZapV1",
            "inputs": [],
            "outputs": [
                {
                    "name": "",
                    "type": "address",
                    "internalType": "contract AmmZapV1"
                }
            ],
            "stateMutability": "view"
        },
        {
            "type": "function",
            "name": "balanceCapBps",
            "inputs": [],
            "outputs": [
                {
                    "name": "",
                    "type": "uint16",
                    "internalType": "uint16"
                }
            ],
            "stateMutability": "view"
        },
        {
            "type": "function",
            "name": "balanceFloorBps",
            "inputs": [],
            "outputs": [
                {
                    "name": "",
                    "type": "uint16",
                    "internalType": "uint16"
                }
            ],
            "stateMutability": "view"
        },
        {
            "type": "function",
            "name": "blacklist",
            "inputs": [],
            "outputs": [
                {
                    "name": "",
                    "type": "address",
                    "internalType": "contract TenXBlacklistV2"
                }
            ],
            "stateMutability": "view"
        },
        {
            "type": "function",
            "name": "czusd",
            "inputs": [],
            "outputs": [
                {
                    "name": "",
                    "type": "address",
                    "internalType": "contract IERC20Mintable"
                }
            ],
            "stateMutability": "view"
        },
        {
            "type": "function",
            "name": "czusdGrantCap",
            "inputs": [],
            "outputs": [
                {
                    "name": "",
                    "type": "uint256",
                    "internalType": "uint256"
                }
            ],
            "stateMutability": "view"
        },
        {
            "type": "function",
            "name": "czusdGrantFloor",
            "inputs": [],
            "outputs": [
                {
                    "name": "",
                    "type": "uint256",
                    "internalType": "uint256"
                }
            ],
            "stateMutability": "view"
        },
        {
            "type": "function",
            "name": "getRoleAdmin",
            "inputs": [
                {
                    "name": "role",
                    "type": "bytes32",
                    "internalType": "bytes32"
                }
            ],
            "outputs": [
                {
                    "name": "",
                    "type": "bytes32",
                    "internalType": "bytes32"
                }
            ],
            "stateMutability": "view"
        },
        {
            "type": "function",
            "name": "getRoleMember",
            "inputs": [
                {
                    "name": "role",
                    "type": "bytes32",
                    "internalType": "bytes32"
                },
                {
                    "name": "index",
                    "type": "uint256",
                    "internalType": "uint256"
                }
            ],
            "outputs": [
                {
                    "name": "",
                    "type": "address",
                    "internalType": "address"
                }
            ],
            "stateMutability": "view"
        },
        {
            "type": "function",
            "name": "getRoleMemberCount",
            "inputs": [
                {
                    "name": "role",
                    "type": "bytes32",
                    "internalType": "bytes32"
                }
            ],
            "outputs": [
                {
                    "name": "",
                    "type": "uint256",
                    "internalType": "uint256"
                }
            ],
            "stateMutability": "view"
        },
        {
            "type": "function",
            "name": "governance",
            "inputs": [],
            "outputs": [
                {
                    "name": "",
                    "type": "address",
                    "internalType": "address"
                }
            ],
            "stateMutability": "view"
        },
        {
            "type": "function",
            "name": "grantRole",
            "inputs": [
                {
                    "name": "role",
                    "type": "bytes32",
                    "internalType": "bytes32"
                },
                {
                    "name": "account",
                    "type": "address",
                    "internalType": "address"
                }
            ],
            "outputs": [],
            "stateMutability": "nonpayable"
        },
        {
            "type": "function",
            "name": "hasRole",
            "inputs": [
                {
                    "name": "role",
                    "type": "bytes32",
                    "internalType": "bytes32"
                },
                {
                    "name": "account",
                    "type": "address",
                    "internalType": "address"
                }
            ],
            "outputs": [
                {
                    "name": "",
                    "type": "bool",
                    "internalType": "bool"
                }
            ],
            "stateMutability": "view"
        },
        {
            "type": "function",
            "name": "launchTimestampCap",
            "inputs": [],
            "outputs": [
                {
                    "name": "",
                    "type": "uint64",
                    "internalType": "uint64"
                }
            ],
            "stateMutability": "view"
        },
        {
            "type": "function",
            "name": "renounceRole",
            "inputs": [
                {
                    "name": "role",
                    "type": "bytes32",
                    "internalType": "bytes32"
                },
                {
                    "name": "callerConfirmation",
                    "type": "address",
                    "internalType": "address"
                }
            ],
            "outputs": [],
            "stateMutability": "nonpayable"
        },
        {
            "type": "function",
            "name": "revokeRole",
            "inputs": [
                {
                    "name": "role",
                    "type": "bytes32",
                    "internalType": "bytes32"
                },
                {
                    "name": "account",
                    "type": "address",
                    "internalType": "address"
                }
            ],
            "outputs": [],
            "stateMutability": "nonpayable"
        },
        {
            "type": "function",
            "name": "setAmmFactory",
            "inputs": [
                {
                    "name": "to",
                    "type": "address",
                    "internalType": "contract IAmmFactory"
                }
            ],
            "outputs": [],
            "stateMutability": "nonpayable"
        },
        {
            "type": "function",
            "name": "setAmmRouter",
            "inputs": [
                {
                    "name": "to",
                    "type": "address",
                    "internalType": "contract IAmmRouter02"
                }
            ],
            "outputs": [],
            "stateMutability": "nonpayable"
        },
        {
            "type": "function",
            "name": "setAmmZapV1",
            "inputs": [
                {
                    "name": "to",
                    "type": "address",
                    "internalType": "contract AmmZapV1"
                }
            ],
            "outputs": [],
            "stateMutability": "nonpayable"
        },
        {
            "type": "function",
            "name": "setBalanceCapBps",
            "inputs": [
                {
                    "name": "to",
                    "type": "uint16",
                    "internalType": "uint16"
                }
            ],
            "outputs": [],
            "stateMutability": "nonpayable"
        },
        {
            "type": "function",
            "name": "setBalanceFloorBps",
            "inputs": [
                {
                    "name": "to",
                    "type": "uint16",
                    "internalType": "uint16"
                }
            ],
            "outputs": [],
            "stateMutability": "nonpayable"
        },
        {
            "type": "function",
            "name": "setBlacklist",
            "inputs": [
                {
                    "name": "to",
                    "type": "address",
                    "internalType": "contract TenXBlacklistV2"
                }
            ],
            "outputs": [],
            "stateMutability": "nonpayable"
        },
        {
            "type": "function",
            "name": "setCzodiacGovernance",
            "inputs": [
                {
                    "name": "to",
                    "type": "address",
                    "internalType": "address"
                }
            ],
            "outputs": [],
            "stateMutability": "nonpayable"
        },
        {
            "type": "function",
            "name": "setCzusd",
            "inputs": [
                {
                    "name": "to",
                    "type": "address",
                    "internalType": "contract IERC20Mintable"
                }
            ],
            "outputs": [],
            "stateMutability": "nonpayable"
        },
        {
            "type": "function",
            "name": "setCzusdGrantCap",
            "inputs": [
                {
                    "name": "to",
                    "type": "uint256",
                    "internalType": "uint256"
                }
            ],
            "outputs": [],
            "stateMutability": "nonpayable"
        },
        {
            "type": "function",
            "name": "setCzusdGrantFlor",
            "inputs": [
                {
                    "name": "to",
                    "type": "uint256",
                    "internalType": "uint256"
                }
            ],
            "outputs": [],
            "stateMutability": "nonpayable"
        },
        {
            "type": "function",
            "name": "setLaunchTimestampCap",
            "inputs": [
                {
                    "name": "to",
                    "type": "uint64",
                    "internalType": "uint64"
                }
            ],
            "outputs": [],
            "stateMutability": "nonpayable"
        },
        {
            "type": "function",
            "name": "setSwapLiquifyAtBps",
            "inputs": [
                {
                    "name": "to",
                    "type": "uint16",
                    "internalType": "uint16"
                }
            ],
            "outputs": [],
            "stateMutability": "nonpayable"
        },
        {
            "type": "function",
            "name": "setTaxesTotalCap",
            "inputs": [
                {
                    "name": "to",
                    "type": "uint16",
                    "internalType": "uint16"
                }
            ],
            "outputs": [],
            "stateMutability": "nonpayable"
        },
        {
            "type": "function",
            "name": "setTransactionSizeCapBps",
            "inputs": [
                {
                    "name": "to",
                    "type": "uint16",
                    "internalType": "uint16"
                }
            ],
            "outputs": [],
            "stateMutability": "nonpayable"
        },
        {
            "type": "function",
            "name": "setTransactionSizeFloorBps",
            "inputs": [
                {
                    "name": "to",
                    "type": "uint16",
                    "internalType": "uint16"
                }
            ],
            "outputs": [],
            "stateMutability": "nonpayable"
        },
        {
            "type": "function",
            "name": "supportsInterface",
            "inputs": [
                {
                    "name": "interfaceId",
                    "type": "bytes4",
                    "internalType": "bytes4"
                }
            ],
            "outputs": [
                {
                    "name": "",
                    "type": "bool",
                    "internalType": "bool"
                }
            ],
            "stateMutability": "view"
        },
        {
            "type": "function",
            "name": "swapLiquifyAtBps",
            "inputs": [],
            "outputs": [
                {
                    "name": "",
                    "type": "uint16",
                    "internalType": "uint16"
                }
            ],
            "stateMutability": "view"
        },
        {
            "type": "function",
            "name": "taxesTotalCap",
            "inputs": [],
            "outputs": [
                {
                    "name": "",
                    "type": "uint16",
                    "internalType": "uint16"
                }
            ],
            "stateMutability": "view"
        },
        {
            "type": "function",
            "name": "transactionSizeCapBps",
            "inputs": [],
            "outputs": [
                {
                    "name": "",
                    "type": "uint16",
                    "internalType": "uint16"
                }
            ],
            "stateMutability": "view"
        },
        {
            "type": "function",
            "name": "transactionSizeFloorBps",
            "inputs": [],
            "outputs": [
                {
                    "name": "",
                    "type": "uint16",
                    "internalType": "uint16"
                }
            ],
            "stateMutability": "view"
        },
        {
            "type": "event",
            "name": "RoleAdminChanged",
            "inputs": [
                {
                    "name": "role",
                    "type": "bytes32",
                    "indexed": true,
                    "internalType": "bytes32"
                },
                {
                    "name": "previousAdminRole",
                    "type": "bytes32",
                    "indexed": true,
                    "internalType": "bytes32"
                },
                {
                    "name": "newAdminRole",
                    "type": "bytes32",
                    "indexed": true,
                    "internalType": "bytes32"
                }
            ],
            "anonymous": false
        },
        {
            "type": "event",
            "name": "RoleGranted",
            "inputs": [
                {
                    "name": "role",
                    "type": "bytes32",
                    "indexed": true,
                    "internalType": "bytes32"
                },
                {
                    "name": "account",
                    "type": "address",
                    "indexed": true,
                    "internalType": "address"
                },
                {
                    "name": "sender",
                    "type": "address",
                    "indexed": true,
                    "internalType": "address"
                }
            ],
            "anonymous": false
        },
        {
            "type": "event",
            "name": "RoleRevoked",
            "inputs": [
                {
                    "name": "role",
                    "type": "bytes32",
                    "indexed": true,
                    "internalType": "bytes32"
                },
                {
                    "name": "account",
                    "type": "address",
                    "indexed": true,
                    "internalType": "address"
                },
                {
                    "name": "sender",
                    "type": "address",
                    "indexed": true,
                    "internalType": "address"
                }
            ],
            "anonymous": false
        },
        {
            "type": "event",
            "name": "SetAmmFactory",
            "inputs": [
                {
                    "name": "to",
                    "type": "address",
                    "indexed": false,
                    "internalType": "contract IAmmFactory"
                }
            ],
            "anonymous": false
        },
        {
            "type": "event",
            "name": "SetAmmRouter",
            "inputs": [
                {
                    "name": "to",
                    "type": "address",
                    "indexed": false,
                    "internalType": "contract IAmmRouter02"
                }
            ],
            "anonymous": false
        },
        {
            "type": "event",
            "name": "SetAmmZapV1",
            "inputs": [
                {
                    "name": "to",
                    "type": "address",
                    "indexed": false,
                    "internalType": "contract AmmZapV1"
                }
            ],
            "anonymous": false
        },
        {
            "type": "event",
            "name": "SetBalanceCapBps",
            "inputs": [
                {
                    "name": "to",
                    "type": "uint16",
                    "indexed": false,
                    "internalType": "uint16"
                }
            ],
            "anonymous": false
        },
        {
            "type": "event",
            "name": "SetBalanceFloorBps",
            "inputs": [
                {
                    "name": "to",
                    "type": "uint16",
                    "indexed": false,
                    "internalType": "uint16"
                }
            ],
            "anonymous": false
        },
        {
            "type": "event",
            "name": "SetBlacklist",
            "inputs": [
                {
                    "name": "to",
                    "type": "address",
                    "indexed": false,
                    "internalType": "contract TenXBlacklistV2"
                }
            ],
            "anonymous": false
        },
        {
            "type": "event",
            "name": "SetCzusd",
            "inputs": [
                {
                    "name": "to",
                    "type": "address",
                    "indexed": false,
                    "internalType": "contract IERC20Mintable"
                }
            ],
            "anonymous": false
        },
        {
            "type": "event",
            "name": "SetCzusdGrantCap",
            "inputs": [
                {
                    "name": "to",
                    "type": "uint256",
                    "indexed": false,
                    "internalType": "uint256"
                }
            ],
            "anonymous": false
        },
        {
            "type": "event",
            "name": "SetCzusdGrantFlor",
            "inputs": [
                {
                    "name": "to",
                    "type": "uint256",
                    "indexed": false,
                    "internalType": "uint256"
                }
            ],
            "anonymous": false
        },
        {
            "type": "event",
            "name": "SetGovernance",
            "inputs": [
                {
                    "name": "to",
                    "type": "address",
                    "indexed": false,
                    "internalType": "address"
                }
            ],
            "anonymous": false
        },
        {
            "type": "event",
            "name": "SetLaunchTimestampCap",
            "inputs": [
                {
                    "name": "to",
                    "type": "uint64",
                    "indexed": false,
                    "internalType": "uint64"
                }
            ],
            "anonymous": false
        },
        {
            "type": "event",
            "name": "SetSwapLiquifyAtBps",
            "inputs": [
                {
                    "name": "to",
                    "type": "uint16",
                    "indexed": false,
                    "internalType": "uint16"
                }
            ],
            "anonymous": false
        },
        {
            "type": "event",
            "name": "SetTaxesTotalCap",
            "inputs": [
                {
                    "name": "to",
                    "type": "uint16",
                    "indexed": false,
                    "internalType": "uint16"
                }
            ],
            "anonymous": false
        },
        {
            "type": "event",
            "name": "SetTransactionSizeCapBps",
            "inputs": [
                {
                    "name": "to",
                    "type": "uint16",
                    "indexed": false,
                    "internalType": "uint16"
                }
            ],
            "anonymous": false
        },
        {
            "type": "event",
            "name": "SetTransactionSizeFloorBps",
            "inputs": [
                {
                    "name": "to",
                    "type": "uint16",
                    "indexed": false,
                    "internalType": "uint16"
                }
            ],
            "anonymous": false
        },
        {
            "type": "error",
            "name": "AccessControlBadConfirmation",
            "inputs": []
        },
        {
            "type": "error",
            "name": "AccessControlUnauthorizedAccount",
            "inputs": [
                {
                    "name": "account",
                    "type": "address",
                    "internalType": "address"
                },
                {
                    "name": "neededRole",
                    "type": "bytes32",
                    "internalType": "bytes32"
                }
            ]
        },
        {
            "type": "error",
            "name": "OverCap",
            "inputs": [
                {
                    "name": "amount",
                    "type": "uint256",
                    "internalType": "uint256"
                },
                {
                    "name": "cap",
                    "type": "uint256",
                    "internalType": "uint256"
                }
            ]
        },
        {
            "type": "error",
            "name": "UnderFloor",
            "inputs": [
                {
                    "name": "amount",
                    "type": "uint256",
                    "internalType": "uint256"
                },
                {
                    "name": "floor",
                    "type": "uint256",
                    "internalType": "uint256"
                }
            ]
        }
    ],
    "bytecode": {
        "object": "0x6080346200040a57601f620015b938819003918201601f1916830192916001600160401b0391828511848610176200040f578160c092859260409788528339810103126200040a5781516001600160a01b038082169390918490036200040a5760209283820151908382168092036200040a5786830151928484168094036200040a576060810151968588168098036200040a576080820151918683168093036200040a5760a00151918683168093036200040a577f2c901b2a9b1a4d7a5ade38d9ca448d9b32bffda1eed662076353e32576940d7b987fd4925cb16ea0708f0fa6549a16c31ec4094b89e56fc8402ab62dcde049b9083b96899669021e19e0c9bab240000060025569010f0cf064dd5920000060035560018060a01b031994720100012710000127100bb8000000000076a700866004541617600455856005541617600555846006541617600655836007541617600755826008541617600855816009541617600955600a541617600a556200017c3362000425565b620003ec575b7f7ff5e931aa0fbebba57edefedb8dae6d4069884f29d6e795af1c0fcb2e1b2b6d826002548951908152a17f34df1cda336a936ee00304296df11d791e38ca711c596c3772412473c4ffcb51826003548951908152a17f36f64b1192717f8d1f8f2d0ce275d937470be5d5737d567f17575ebbfa474975826004549289519084168152a161ffff7f14f222c299d5ae06f5ff52eca173326e39dbc8bb983bca2a49ef16aafe40e02c83895183858c1c168152a17f083fc7ad8ee45da89b9d86af820bad88355ca93919a9b6b40824f77e10556418838951838560501c168152a17f632c269aa99ea9bf2a924afe222fa7579aacc63cb45c945ee4c889b19c269eeb838951838560601c168152a17f3ba0c1e1eca52d762e8e42bd2da9ff377e7e8b10c2061abd63f245fb14d02d60838951838560701c168152a17f847492ad5fe02e1bb073a599a320ce65965d504a4157bff665bc8201e3742bd2838951838560801c168152a187519160901c168152a17f24a8c4807b324a269a51827c3446b8ac1cc13810d7d0c0ca1efafabddd7b62198282600554168651908152a17ffcb184afdb98ba9604284e2709a83b47c499f15682830159ef3199b2d246a6778282600654168651908152a17f4f56f9653939c30cdbbf1ae7c136c1cf8ec13480cc0d90ab533a3d164412c00a8282600754168651908152a17f5e650551e45a81b566e59c0d260258a27737bfbd40f864958264a4c2a958e5d18282600854168651908152a17f34623a90b120b6def6b8cb88b64cf59143ed68e8089abb3deb92394fb611d87f8282600954168651908152a1600a54168351908152a1516110759081620005448239f35b6000805260018252620004033388600020620004b6565b5062000182565b600080fd5b634e487b7160e01b600052604160045260246000fd5b6001600160a01b031660008181527fad3228b676f7d3cd4284a5443f17f1962b36e491b30a40b2405849e597ba5fb5602052604081205490919060ff16620004b257818052816020526040822081835260205260408220600160ff1982541617905533917f2f8788117e7eff1d82e926ec794901d17c78024a50270940304540a733656f0d8180a4600190565b5090565b919060018301600090828252806020526040822054156000146200053d57845494680100000000000000008610156200052957600186018082558610156200051557836040949596828552602085200155549382526020522055600190565b634e487b7160e01b83526032600452602483fd5b634e487b7160e01b83526041600452602483fd5b5092505056fe608060408181526004918236101561001657600080fd5b600090813560e01c90816301ffc9a714610c62575080630acbf44214610c3f5780631db1bd9914610c205780632052f3d814610baa57806320b0d27c14610b865780632117ba2314610b18578063248a9ca314610aee578063283a9f0914610a705780632f2ff15d14610a05578063303720851461098f578063346242571461096b57806335e68762146108f557806336568abe146108af57806339c6980b14610841578063491bf3c5146107cb5780634dbc51431461075d5780634e054a67146106ef5780635aa6e675146106c65780635dd8cdb0146106a25780639010d07c1461066157806390b3c4e71461063857806391d14854146105f2578063a217fddf146105d7578063a4b5fa56146105ae578063af4e4a8914610587578063ca15c8731461055f578063ca94bfa6146104ee578063d3a49a3a146104ca578063d3f83ae3146104a1578063d547741f14610462578063d59dab1814610439578063d83e9d2f146103eb578063dacda92f146103c2578063e4ccb37214610354578063ea1e80c814610306578063eebcf080146102e3578063f073259414610275578063f4fef92d146101f75763ffbbf597146101d157600080fd5b346101f457806003193601126101f4575061ffff6020925460501c169051908152f35b80fd5b5091346102715760203660031901126102715780359061ffff808316830361026d577f847492ad5fe02e1bb073a599a320ce65965d504a4157bff665bc8201e3742bd293602093610246610ceb565b835461ffff60801b1916608091821b61ffff60801b161793849055905192901c168152a180f35b8480fd5b8280fd5b50913461027157602036600319011261027157356001600160a01b0381169190829003610271577f24a8c4807b324a269a51827c3446b8ac1cc13810d7d0c0ca1efafabddd7b6219916020916102c9610ceb565b600580546001600160a01b0319168317905551908152a180f35b5090346103025781600319360112610302576020906002549051908152f35b5080fd5b509134610271576020366003190112610271577f34df1cda336a936ee00304296df11d791e38ca711c596c3772412473c4ffcb51916020913590610348610ceb565b8160035551908152a180f35b50913461027157602036600319011261027157356001600160a01b0381169190829003610271577f4f56f9653939c30cdbbf1ae7c136c1cf8ec13480cc0d90ab533a3d164412c00a916020916103a8610ceb565b600780546001600160a01b0319168317905551908152a180f35b50903461030257816003193601126103025760095490516001600160a01b039091168152602090f35b509134610271576020366003190112610271577f7ff5e931aa0fbebba57edefedb8dae6d4069884f29d6e795af1c0fcb2e1b2b6d91602091359061042d610ceb565b8160025551908152a180f35b50903461030257816003193601126103025760075490516001600160a01b039091168152602090f35b5091903461027157806003193601126102715761049d91356104986001610487610cd0565b938387528660205286200154610d43565b610d69565b5080f35b509034610302578160031936011261030257600a5490516001600160a01b039091168152602090f35b50346101f457806003193601126101f4575061ffff6020925460601c169051908152f35b50913461027157602036600319011261027157803567ffffffffffffffff811680910361055b577f36f64b1192717f8d1f8f2d0ce275d937470be5d5737d567f17575ebbfa47497592602092610542610ceb565b805467ffffffffffffffff19168317905551908152a180f35b8380fd5b5091346102715760203660031901126102715760209282913581526001845220549051908152f35b50346101f457806003193601126101f4575067ffffffffffffffff60209254169051908152f35b50903461030257816003193601126103025760065490516001600160a01b039091168152602090f35b50903461030257816003193601126103025751908152602090f35b5091346102715781600319360112610271578160209360ff92610613610cd0565b903582528186528282206001600160a01b039091168252855220549151911615158152f35b50903461030257816003193601126103025760085490516001600160a01b039091168152602090f35b50913461027157816003193601126102715760209261068c9135815260018452826024359120610e97565b905491519160018060a01b039160031b1c168152f35b50346101f457806003193601126101f4575061ffff6020925460701c169051908152f35b50903461030257816003193601126103025760055490516001600160a01b039091168152602090f35b50913461027157602036600319011261027157356001600160a01b0381169190829003610271577ffcb184afdb98ba9604284e2709a83b47c499f15682830159ef3199b2d246a67791602091610743610ceb565b600680546001600160a01b0319168317905551908152a180f35b50913461027157602036600319011261027157356001600160a01b0381169190829003610271577f34623a90b120b6def6b8cb88b64cf59143ed68e8089abb3deb92394fb611d87f916020916107b1610ceb565b600980546001600160a01b0319168317905551908152a180f35b5091346102715760203660031901126102715780359061ffff808316830361026d577f632c269aa99ea9bf2a924afe222fa7579aacc63cb45c945ee4c889b19c269eeb9360209361081a610ceb565b835461ffff60601b1916606091821b61ffff60601b161793849055905192901c168152a180f35b50913461027157602036600319011261027157356001600160a01b0381169190829003610271577f5e650551e45a81b566e59c0d260258a27737bfbd40f864958264a4c2a958e5d191602091610895610ceb565b600880546001600160a01b0319168317905551908152a180f35b5090346103025780600319360112610302576108c9610cd0565b90336001600160a01b038316036108e6575061049d919235610d69565b5163334bd91960e11b81528390fd5b5091346102715760203660031901126102715780359061ffff808316830361026d577f083fc7ad8ee45da89b9d86af820bad88355ca93919a9b6b40824f77e1055641893602093610944610ceb565b835461ffff60501b1916605091821b61ffff60501b161793849055905192901c168152a180f35b50346101f457806003193601126101f4575061ffff6020925460901c169051908152f35b5091346102715760203660031901126102715780359061ffff808316830361026d577fd4925cb16ea0708f0fa6549a16c31ec4094b89e56fc8402ab62dcde049b9083b936020936109de610ceb565b835461ffff60901b1916609091821b61ffff60901b161793849055905192901c168152a180f35b5091346102715781600319360112610271573590610a21610cd0565b9082845283602052610a3860018286200154610d43565b610a428284610da4565b610a4a578380f35b9183526001602052908220610a68916001600160a01b031690610ec5565b503880808380f35b509190346102715760203660031901126102715781359061ffff808316830361026d577f14f222c299d5ae06f5ff52eca173326e39dbc8bb983bca2a49ef16aafe40e02c93602093610ac0610ceb565b815469ffff0000000000000000191690841b69ffff00000000000000001617908190558251921c168152a180f35b50913461027157602036600319011261027157816020936001923581528085522001549051908152f35b50913461027157602036600319011261027157356001600160a01b0381169190829003610271577f2c901b2a9b1a4d7a5ade38d9ca448d9b32bffda1eed662076353e32576940d7b91602091610b6c610ceb565b600a80546001600160a01b0319168317905551908152a180f35b50346101f457806003193601126101f4575061ffff6020925460801c169051908152f35b5091346102715760203660031901126102715780359061ffff808316830361026d577f3ba0c1e1eca52d762e8e42bd2da9ff377e7e8b10c2061abd63f245fb14d02d6093602093610bf9610ceb565b835461ffff60701b1916607091821b61ffff60701b161793849055905192901c168152a180f35b5090346103025781600319360112610302576020906003549051908152f35b50346101f457806003193601126101f4575061ffff60209254821c169051908152f35b90508334610271576020366003190112610271573563ffffffff60e01b81168091036102715760209250635a05180f60e01b8114908115610ca5575b5015158152f35b637965db0b60e01b811491508115610cbf575b5083610c9e565b6301ffc9a760e01b14905083610cb8565b602435906001600160a01b0382168203610ce657565b600080fd5b3360009081527fad3228b676f7d3cd4284a5443f17f1962b36e491b30a40b2405849e597ba5fb5602052604081205460ff1615610d255750565b6044906040519063e2517d3f60e01b82523360048301526024820152fd5b80600052600060205260406000203360005260205260ff6040600020541615610d255750565b610d738282610e22565b9182610d7e57505090565b600091825260016020526040909120610da0916001600160a01b031690610f4f565b5090565b9060009180835282602052604083209160018060a01b03169182845260205260ff60408420541615600014610e1d57808352826020526040832082845260205260408320600160ff198254161790557f2f8788117e7eff1d82e926ec794901d17c78024a50270940304540a733656f0d339380a4600190565b505090565b9060009180835282602052604083209160018060a01b03169182845260205260ff604084205416600014610e1d5780835282602052604083208284526020526040832060ff1981541690557ff6391f5c32d9c69d2a47ea670b442974b53935d1edc7fd64eb21e047a839171b339380a4600190565b8054821015610eaf5760005260206000200190600090565b634e487b7160e01b600052603260045260246000fd5b91906001830160009082825280602052604082205415600014610f495784549468010000000000000000861015610f355783610f25610f0e886001604098999a01855584610e97565b819391549060031b91821b91600019901b19161790565b9055549382526020522055600190565b634e487b7160e01b83526041600452602483fd5b50925050565b9060018201906000928184528260205260408420549081151560001461103857600019918083018181116110245782549084820191821161101057818103610fdb575b50505080548015610fc757820191610faa8383610e97565b909182549160031b1b191690555582526020526040812055600190565b634e487b7160e01b86526031600452602486fd5b610ffb610feb610f0e9386610e97565b90549060031b1c92839286610e97565b90558652846020526040862055388080610f92565b634e487b7160e01b88526011600452602488fd5b634e487b7160e01b87526011600452602487fd5b505050509056fea2646970667358221220825f32248ddfc1ed4179cc0f09e7f42e1a649def218790fbe2cee75a6456d51f64736f6c63430008170033",
        "linkReferences": {}
    },
    "methodIdentifiers": {
        "DEFAULT_ADMIN_ROLE()": "a217fddf",
        "ammFactory()": "dacda92f",
        "ammRouter()": "90b3c4e7",
        "ammZapV1()": "d3f83ae3",
        "balanceCapBps()": "5dd8cdb0",
        "balanceFloorBps()": "20b0d27c",
        "blacklist()": "a4b5fa56",
        "czusd()": "d59dab18",
        "czusdGrantCap()": "eebcf080",
        "czusdGrantFloor()": "1db1bd99",
        "getRoleAdmin(bytes32)": "248a9ca3",
        "getRoleMember(bytes32,uint256)": "9010d07c",
        "getRoleMemberCount(bytes32)": "ca15c873",
        "governance()": "5aa6e675",
        "grantRole(bytes32,address)": "2f2ff15d",
        "hasRole(bytes32,address)": "91d14854",
        "launchTimestampCap()": "af4e4a89",
        "renounceRole(bytes32,address)": "36568abe",
        "revokeRole(bytes32,address)": "d547741f",
        "setAmmFactory(address)": "4dbc5143",
        "setAmmRouter(address)": "39c6980b",
        "setAmmZapV1(address)": "2117ba23",
        "setBalanceCapBps(uint16)": "2052f3d8",
        "setBalanceFloorBps(uint16)": "f4fef92d",
        "setBlacklist(address)": "4e054a67",
        "setCzodiacGovernance(address)": "f0732594",
        "setCzusd(address)": "e4ccb372",
        "setCzusdGrantCap(uint256)": "d83e9d2f",
        "setCzusdGrantFlor(uint256)": "ea1e80c8",
        "setLaunchTimestampCap(uint64)": "ca94bfa6",
        "setSwapLiquifyAtBps(uint16)": "30372085",
        "setTaxesTotalCap(uint16)": "283a9f09",
        "setTransactionSizeCapBps(uint16)": "35e68762",
        "setTransactionSizeFloorBps(uint16)": "491bf3c5",
        "supportsInterface(bytes4)": "01ffc9a7",
        "swapLiquifyAtBps()": "34624257",
        "taxesTotalCap()": "0acbf442",
        "transactionSizeCapBps()": "ffbbf597",
        "transactionSizeFloorBps()": "d3a49a3a"
    },
    "id": 80
}