{
  "abi": [
    {
      "type": "constructor",
      "inputs": [
        {
          "name": "_name",
          "type": "string",
          "internalType": "string"
        },
        {
          "name": "_symbol",
          "type": "string",
          "internalType": "string"
        },
        {
          "name": "_tokenLogoCID",
          "type": "string",
          "internalType": "string"
        },
        {
          "name": "_descriptionMarkdownCID",
          "type": "string",
          "internalType": "string"
        },
        {
          "name": "_tenXSettings",
          "type": "address",
          "internalType": "contract TenXSettingsV2"
        },
        {
          "name": "_balanceMax",
          "type": "uint256",
          "internalType": "uint256"
        },
        {
          "name": "_transactionSizeMax",
          "type": "uint256",
          "internalType": "uint256"
        },
        {
          "name": "_supply",
          "type": "uint256",
          "internalType": "uint256"
        },
        {
          "name": "_taxReceiver",
          "type": "address",
          "internalType": "address"
        },
        {
          "name": "_buyTax",
          "type": "uint16",
          "internalType": "uint16"
        },
        {
          "name": "_buyBurn",
          "type": "uint16",
          "internalType": "uint16"
        },
        {
          "name": "_buyLpFee",
          "type": "uint16",
          "internalType": "uint16"
        },
        {
          "name": "_sellTax",
          "type": "uint16",
          "internalType": "uint16"
        },
        {
          "name": "_sellBurn",
          "type": "uint16",
          "internalType": "uint16"
        },
        {
          "name": "_sellLpFee",
          "type": "uint16",
          "internalType": "uint16"
        },
        {
          "name": "_launchTimestamp",
          "type": "uint64",
          "internalType": "uint64"
        }
      ],
      "stateMutability": "nonpayable"
    },
    {
      "type": "function",
      "name": "ADMIN_setAmmCzusdPair",
      "inputs": [
        {
          "name": "_ammCzusdPair",
          "type": "address",
          "internalType": "address"
        }
      ],
      "outputs": [],
      "stateMutability": "nonpayable"
    },
    {
      "type": "function",
      "name": "ADMIN_setTenXSettings",
      "inputs": [
        {
          "name": "_tenXSettings",
          "type": "address",
          "internalType": "contract TenXSettingsV2"
        }
      ],
      "outputs": [],
      "stateMutability": "nonpayable"
    },
    {
      "type": "function",
      "name": "ADMIN_zap",
      "inputs": [],
      "outputs": [],
      "stateMutability": "nonpayable"
    },
    {
      "type": "function",
      "name": "DEFAULT_ADMIN_ROLE",
      "inputs": [],
      "outputs": [
        {
          "name": "",
          "type": "bytes32",
          "internalType": "bytes32"
        }
      ],
      "stateMutability": "view"
    },
    {
      "type": "function",
      "name": "DOMAIN_SEPARATOR",
      "inputs": [],
      "outputs": [
        {
          "name": "",
          "type": "bytes32",
          "internalType": "bytes32"
        }
      ],
      "stateMutability": "view"
    },
    {
      "type": "function",
      "name": "INITIAL_SUPPLY",
      "inputs": [],
      "outputs": [
        {
          "name": "",
          "type": "uint256",
          "internalType": "uint256"
        }
      ],
      "stateMutability": "view"
    },
    {
      "type": "function",
      "name": "MANAGER_ROLE",
      "inputs": [],
      "outputs": [
        {
          "name": "",
          "type": "bytes32",
          "internalType": "bytes32"
        }
      ],
      "stateMutability": "view"
    },
    {
      "type": "function",
      "name": "MANAGER_setDescriptionMarkdownCID",
      "inputs": [
        {
          "name": "_descriptionMarkdownCID",
          "type": "string",
          "internalType": "string"
        }
      ],
      "outputs": [],
      "stateMutability": "nonpayable"
    },
    {
      "type": "function",
      "name": "MANAGER_setIsExempt",
      "inputs": [
        {
          "name": "_account",
          "type": "address",
          "internalType": "address"
        },
        {
          "name": "_isExempt",
          "type": "bool",
          "internalType": "bool"
        }
      ],
      "outputs": [],
      "stateMutability": "nonpayable"
    },
    {
      "type": "function",
      "name": "MANAGER_setMaxes",
      "inputs": [
        {
          "name": "_balanceMax",
          "type": "uint256",
          "internalType": "uint256"
        },
        {
          "name": "_transactionSizeMax",
          "type": "uint256",
          "internalType": "uint256"
        }
      ],
      "outputs": [],
      "stateMutability": "nonpayable"
    },
    {
      "type": "function",
      "name": "MANAGER_setTaxReceiver",
      "inputs": [
        {
          "name": "_taxReceiver",
          "type": "address",
          "internalType": "address"
        }
      ],
      "outputs": [],
      "stateMutability": "nonpayable"
    },
    {
      "type": "function",
      "name": "MANAGER_setTaxes",
      "inputs": [
        {
          "name": "_buyTax",
          "type": "uint16",
          "internalType": "uint16"
        },
        {
          "name": "_buyBurn",
          "type": "uint16",
          "internalType": "uint16"
        },
        {
          "name": "_buyLpFee",
          "type": "uint16",
          "internalType": "uint16"
        },
        {
          "name": "_sellTax",
          "type": "uint16",
          "internalType": "uint16"
        },
        {
          "name": "_sellBurn",
          "type": "uint16",
          "internalType": "uint16"
        },
        {
          "name": "_sellLpFee",
          "type": "uint16",
          "internalType": "uint16"
        }
      ],
      "outputs": [],
      "stateMutability": "nonpayable"
    },
    {
      "type": "function",
      "name": "MANAGER_setTokenLogoCID",
      "inputs": [
        {
          "name": "_tokenLogoCID",
          "type": "string",
          "internalType": "string"
        }
      ],
      "outputs": [],
      "stateMutability": "nonpayable"
    },
    {
      "type": "function",
      "name": "allowance",
      "inputs": [
        {
          "name": "owner",
          "type": "address",
          "internalType": "address"
        },
        {
          "name": "spender",
          "type": "address",
          "internalType": "address"
        }
      ],
      "outputs": [
        {
          "name": "",
          "type": "uint256",
          "internalType": "uint256"
        }
      ],
      "stateMutability": "view"
    },
    {
      "type": "function",
      "name": "ammCzusdPair",
      "inputs": [],
      "outputs": [
        {
          "name": "",
          "type": "address",
          "internalType": "address"
        }
      ],
      "stateMutability": "view"
    },
    {
      "type": "function",
      "name": "approve",
      "inputs": [
        {
          "name": "spender",
          "type": "address",
          "internalType": "address"
        },
        {
          "name": "value",
          "type": "uint256",
          "internalType": "uint256"
        }
      ],
      "outputs": [
        {
          "name": "",
          "type": "bool",
          "internalType": "bool"
        }
      ],
      "stateMutability": "nonpayable"
    },
    {
      "type": "function",
      "name": "balanceMax",
      "inputs": [],
      "outputs": [
        {
          "name": "",
          "type": "uint256",
          "internalType": "uint256"
        }
      ],
      "stateMutability": "view"
    },
    {
      "type": "function",
      "name": "balanceOf",
      "inputs": [
        {
          "name": "account",
          "type": "address",
          "internalType": "address"
        }
      ],
      "outputs": [
        {
          "name": "",
          "type": "uint256",
          "internalType": "uint256"
        }
      ],
      "stateMutability": "view"
    },
    {
      "type": "function",
      "name": "burn",
      "inputs": [
        {
          "name": "value",
          "type": "uint256",
          "internalType": "uint256"
        }
      ],
      "outputs": [],
      "stateMutability": "nonpayable"
    },
    {
      "type": "function",
      "name": "burnFrom",
      "inputs": [
        {
          "name": "account",
          "type": "address",
          "internalType": "address"
        },
        {
          "name": "value",
          "type": "uint256",
          "internalType": "uint256"
        }
      ],
      "outputs": [],
      "stateMutability": "nonpayable"
    },
    {
      "type": "function",
      "name": "buyBurn",
      "inputs": [],
      "outputs": [
        {
          "name": "",
          "type": "uint16",
          "internalType": "uint16"
        }
      ],
      "stateMutability": "view"
    },
    {
      "type": "function",
      "name": "buyLpFee",
      "inputs": [],
      "outputs": [
        {
          "name": "",
          "type": "uint16",
          "internalType": "uint16"
        }
      ],
      "stateMutability": "view"
    },
    {
      "type": "function",
      "name": "buyTax",
      "inputs": [],
      "outputs": [
        {
          "name": "",
          "type": "uint16",
          "internalType": "uint16"
        }
      ],
      "stateMutability": "view"
    },
    {
      "type": "function",
      "name": "decimals",
      "inputs": [],
      "outputs": [
        {
          "name": "",
          "type": "uint8",
          "internalType": "uint8"
        }
      ],
      "stateMutability": "view"
    },
    {
      "type": "function",
      "name": "descriptionMarkdownCID",
      "inputs": [],
      "outputs": [
        {
          "name": "",
          "type": "string",
          "internalType": "string"
        }
      ],
      "stateMutability": "view"
    },
    {
      "type": "function",
      "name": "eip712Domain",
      "inputs": [],
      "outputs": [
        {
          "name": "fields",
          "type": "bytes1",
          "internalType": "bytes1"
        },
        {
          "name": "name",
          "type": "string",
          "internalType": "string"
        },
        {
          "name": "version",
          "type": "string",
          "internalType": "string"
        },
        {
          "name": "chainId",
          "type": "uint256",
          "internalType": "uint256"
        },
        {
          "name": "verifyingContract",
          "type": "address",
          "internalType": "address"
        },
        {
          "name": "salt",
          "type": "bytes32",
          "internalType": "bytes32"
        },
        {
          "name": "extensions",
          "type": "uint256[]",
          "internalType": "uint256[]"
        }
      ],
      "stateMutability": "view"
    },
    {
      "type": "function",
      "name": "getRoleAdmin",
      "inputs": [
        {
          "name": "role",
          "type": "bytes32",
          "internalType": "bytes32"
        }
      ],
      "outputs": [
        {
          "name": "",
          "type": "bytes32",
          "internalType": "bytes32"
        }
      ],
      "stateMutability": "view"
    },
    {
      "type": "function",
      "name": "getRoleMember",
      "inputs": [
        {
          "name": "role",
          "type": "bytes32",
          "internalType": "bytes32"
        },
        {
          "name": "index",
          "type": "uint256",
          "internalType": "uint256"
        }
      ],
      "outputs": [
        {
          "name": "",
          "type": "address",
          "internalType": "address"
        }
      ],
      "stateMutability": "view"
    },
    {
      "type": "function",
      "name": "getRoleMemberCount",
      "inputs": [
        {
          "name": "role",
          "type": "bytes32",
          "internalType": "bytes32"
        }
      ],
      "outputs": [
        {
          "name": "",
          "type": "uint256",
          "internalType": "uint256"
        }
      ],
      "stateMutability": "view"
    },
    {
      "type": "function",
      "name": "grantRole",
      "inputs": [
        {
          "name": "role",
          "type": "bytes32",
          "internalType": "bytes32"
        },
        {
          "name": "account",
          "type": "address",
          "internalType": "address"
        }
      ],
      "outputs": [],
      "stateMutability": "nonpayable"
    },
    {
      "type": "function",
      "name": "hasRole",
      "inputs": [
        {
          "name": "role",
          "type": "bytes32",
          "internalType": "bytes32"
        },
        {
          "name": "account",
          "type": "address",
          "internalType": "address"
        }
      ],
      "outputs": [
        {
          "name": "",
          "type": "bool",
          "internalType": "bool"
        }
      ],
      "stateMutability": "view"
    },
    {
      "type": "function",
      "name": "isExempt",
      "inputs": [
        {
          "name": "account",
          "type": "address",
          "internalType": "address"
        }
      ],
      "outputs": [
        {
          "name": "isExempt",
          "type": "bool",
          "internalType": "bool"
        }
      ],
      "stateMutability": "view"
    },
    {
      "type": "function",
      "name": "launchTimestamp",
      "inputs": [],
      "outputs": [
        {
          "name": "",
          "type": "uint64",
          "internalType": "uint64"
        }
      ],
      "stateMutability": "view"
    },
    {
      "type": "function",
      "name": "name",
      "inputs": [],
      "outputs": [
        {
          "name": "",
          "type": "string",
          "internalType": "string"
        }
      ],
      "stateMutability": "view"
    },
    {
      "type": "function",
      "name": "nonces",
      "inputs": [
        {
          "name": "owner",
          "type": "address",
          "internalType": "address"
        }
      ],
      "outputs": [
        {
          "name": "",
          "type": "uint256",
          "internalType": "uint256"
        }
      ],
      "stateMutability": "view"
    },
    {
      "type": "function",
      "name": "permit",
      "inputs": [
        {
          "name": "owner",
          "type": "address",
          "internalType": "address"
        },
        {
          "name": "spender",
          "type": "address",
          "internalType": "address"
        },
        {
          "name": "value",
          "type": "uint256",
          "internalType": "uint256"
        },
        {
          "name": "deadline",
          "type": "uint256",
          "internalType": "uint256"
        },
        {
          "name": "v",
          "type": "uint8",
          "internalType": "uint8"
        },
        {
          "name": "r",
          "type": "bytes32",
          "internalType": "bytes32"
        },
        {
          "name": "s",
          "type": "bytes32",
          "internalType": "bytes32"
        }
      ],
      "outputs": [],
      "stateMutability": "nonpayable"
    },
    {
      "type": "function",
      "name": "renounceRole",
      "inputs": [
        {
          "name": "role",
          "type": "bytes32",
          "internalType": "bytes32"
        },
        {
          "name": "callerConfirmation",
          "type": "address",
          "internalType": "address"
        }
      ],
      "outputs": [],
      "stateMutability": "nonpayable"
    },
    {
      "type": "function",
      "name": "revokeRole",
      "inputs": [
        {
          "name": "role",
          "type": "bytes32",
          "internalType": "bytes32"
        },
        {
          "name": "account",
          "type": "address",
          "internalType": "address"
        }
      ],
      "outputs": [],
      "stateMutability": "nonpayable"
    },
    {
      "type": "function",
      "name": "sellBurn",
      "inputs": [],
      "outputs": [
        {
          "name": "",
          "type": "uint16",
          "internalType": "uint16"
        }
      ],
      "stateMutability": "view"
    },
    {
      "type": "function",
      "name": "sellLpFee",
      "inputs": [],
      "outputs": [
        {
          "name": "",
          "type": "uint16",
          "internalType": "uint16"
        }
      ],
      "stateMutability": "view"
    },
    {
      "type": "function",
      "name": "sellTax",
      "inputs": [],
      "outputs": [
        {
          "name": "",
          "type": "uint16",
          "internalType": "uint16"
        }
      ],
      "stateMutability": "view"
    },
    {
      "type": "function",
      "name": "supportsInterface",
      "inputs": [
        {
          "name": "interfaceId",
          "type": "bytes4",
          "internalType": "bytes4"
        }
      ],
      "outputs": [
        {
          "name": "",
          "type": "bool",
          "internalType": "bool"
        }
      ],
      "stateMutability": "view"
    },
    {
      "type": "function",
      "name": "symbol",
      "inputs": [],
      "outputs": [
        {
          "name": "",
          "type": "string",
          "internalType": "string"
        }
      ],
      "stateMutability": "view"
    },
    {
      "type": "function",
      "name": "taxReceiver",
      "inputs": [],
      "outputs": [
        {
          "name": "",
          "type": "address",
          "internalType": "address"
        }
      ],
      "stateMutability": "view"
    },
    {
      "type": "function",
      "name": "tenXSettings",
      "inputs": [],
      "outputs": [
        {
          "name": "",
          "type": "address",
          "internalType": "contract TenXSettingsV2"
        }
      ],
      "stateMutability": "view"
    },
    {
      "type": "function",
      "name": "tokenLogoCID",
      "inputs": [],
      "outputs": [
        {
          "name": "",
          "type": "string",
          "internalType": "string"
        }
      ],
      "stateMutability": "view"
    },
    {
      "type": "function",
      "name": "totalSupply",
      "inputs": [],
      "outputs": [
        {
          "name": "",
          "type": "uint256",
          "internalType": "uint256"
        }
      ],
      "stateMutability": "view"
    },
    {
      "type": "function",
      "name": "transactionSizeMax",
      "inputs": [],
      "outputs": [
        {
          "name": "",
          "type": "uint256",
          "internalType": "uint256"
        }
      ],
      "stateMutability": "view"
    },
    {
      "type": "function",
      "name": "transfer",
      "inputs": [
        {
          "name": "to",
          "type": "address",
          "internalType": "address"
        },
        {
          "name": "value",
          "type": "uint256",
          "internalType": "uint256"
        }
      ],
      "outputs": [
        {
          "name": "",
          "type": "bool",
          "internalType": "bool"
        }
      ],
      "stateMutability": "nonpayable"
    },
    {
      "type": "function",
      "name": "transferFrom",
      "inputs": [
        {
          "name": "from",
          "type": "address",
          "internalType": "address"
        },
        {
          "name": "to",
          "type": "address",
          "internalType": "address"
        },
        {
          "name": "value",
          "type": "uint256",
          "internalType": "uint256"
        }
      ],
      "outputs": [
        {
          "name": "",
          "type": "bool",
          "internalType": "bool"
        }
      ],
      "stateMutability": "nonpayable"
    },
    {
      "type": "event",
      "name": "Approval",
      "inputs": [
        {
          "name": "owner",
          "type": "address",
          "indexed": true,
          "internalType": "address"
        },
        {
          "name": "spender",
          "type": "address",
          "indexed": true,
          "internalType": "address"
        },
        {
          "name": "value",
          "type": "uint256",
          "indexed": false,
          "internalType": "uint256"
        }
      ],
      "anonymous": false
    },
    {
      "type": "event",
      "name": "EIP712DomainChanged",
      "inputs": [],
      "anonymous": false
    },
    {
      "type": "event",
      "name": "RoleAdminChanged",
      "inputs": [
        {
          "name": "role",
          "type": "bytes32",
          "indexed": true,
          "internalType": "bytes32"
        },
        {
          "name": "previousAdminRole",
          "type": "bytes32",
          "indexed": true,
          "internalType": "bytes32"
        },
        {
          "name": "newAdminRole",
          "type": "bytes32",
          "indexed": true,
          "internalType": "bytes32"
        }
      ],
      "anonymous": false
    },
    {
      "type": "event",
      "name": "RoleGranted",
      "inputs": [
        {
          "name": "role",
          "type": "bytes32",
          "indexed": true,
          "internalType": "bytes32"
        },
        {
          "name": "account",
          "type": "address",
          "indexed": true,
          "internalType": "address"
        },
        {
          "name": "sender",
          "type": "address",
          "indexed": true,
          "internalType": "address"
        }
      ],
      "anonymous": false
    },
    {
      "type": "event",
      "name": "RoleRevoked",
      "inputs": [
        {
          "name": "role",
          "type": "bytes32",
          "indexed": true,
          "internalType": "bytes32"
        },
        {
          "name": "account",
          "type": "address",
          "indexed": true,
          "internalType": "address"
        },
        {
          "name": "sender",
          "type": "address",
          "indexed": true,
          "internalType": "address"
        }
      ],
      "anonymous": false
    },
    {
      "type": "event",
      "name": "SetAmmCzusdPair",
      "inputs": [
        {
          "name": "ammCzusdPair",
          "type": "address",
          "indexed": false,
          "internalType": "address"
        }
      ],
      "anonymous": false
    },
    {
      "type": "event",
      "name": "SetDescriptionMarkdownCID",
      "inputs": [
        {
          "name": "descriptionMarkdownCID",
          "type": "string",
          "indexed": false,
          "internalType": "string"
        }
      ],
      "anonymous": false
    },
    {
      "type": "event",
      "name": "SetIsExempt",
      "inputs": [
        {
          "name": "account",
          "type": "address",
          "indexed": false,
          "internalType": "address"
        },
        {
          "name": "isExempt",
          "type": "bool",
          "indexed": false,
          "internalType": "bool"
        }
      ],
      "anonymous": false
    },
    {
      "type": "event",
      "name": "SetLaunchTimestamp",
      "inputs": [
        {
          "name": "launchTimestamp",
          "type": "uint64",
          "indexed": false,
          "internalType": "uint64"
        }
      ],
      "anonymous": false
    },
    {
      "type": "event",
      "name": "SetMaxes",
      "inputs": [
        {
          "name": "balanceMax",
          "type": "uint256",
          "indexed": false,
          "internalType": "uint256"
        },
        {
          "name": "transactionSizeMax",
          "type": "uint256",
          "indexed": false,
          "internalType": "uint256"
        }
      ],
      "anonymous": false
    },
    {
      "type": "event",
      "name": "SetTaxReceiver",
      "inputs": [
        {
          "name": "taxReceiver",
          "type": "address",
          "indexed": false,
          "internalType": "address"
        }
      ],
      "anonymous": false
    },
    {
      "type": "event",
      "name": "SetTaxes",
      "inputs": [
        {
          "name": "buyTax",
          "type": "uint16",
          "indexed": false,
          "internalType": "uint16"
        },
        {
          "name": "buyBurn",
          "type": "uint16",
          "indexed": false,
          "internalType": "uint16"
        },
        {
          "name": "buyLpFee",
          "type": "uint16",
          "indexed": false,
          "internalType": "uint16"
        },
        {
          "name": "sellTax",
          "type": "uint16",
          "indexed": false,
          "internalType": "uint16"
        },
        {
          "name": "sellBurn",
          "type": "uint16",
          "indexed": false,
          "internalType": "uint16"
        },
        {
          "name": "sellLpFee",
          "type": "uint16",
          "indexed": false,
          "internalType": "uint16"
        }
      ],
      "anonymous": false
    },
    {
      "type": "event",
      "name": "SetTenXSettings",
      "inputs": [
        {
          "name": "tenXSettings",
          "type": "address",
          "indexed": false,
          "internalType": "contract TenXSettingsV2"
        }
      ],
      "anonymous": false
    },
    {
      "type": "event",
      "name": "SetTokenLogoCID",
      "inputs": [
        {
          "name": "tokenLogoCID",
          "type": "string",
          "indexed": false,
          "internalType": "string"
        }
      ],
      "anonymous": false
    },
    {
      "type": "event",
      "name": "TaxesCollected",
      "inputs": [
        {
          "name": "taxWad",
          "type": "uint256",
          "indexed": false,
          "internalType": "uint256"
        },
        {
          "name": "burnWad",
          "type": "uint256",
          "indexed": false,
          "internalType": "uint256"
        },
        {
          "name": "lpWad",
          "type": "uint256",
          "indexed": false,
          "internalType": "uint256"
        }
      ],
      "anonymous": false
    },
    {
      "type": "event",
      "name": "Transfer",
      "inputs": [
        {
          "name": "from",
          "type": "address",
          "indexed": true,
          "internalType": "address"
        },
        {
          "name": "to",
          "type": "address",
          "indexed": true,
          "internalType": "address"
        },
        {
          "name": "value",
          "type": "uint256",
          "indexed": false,
          "internalType": "uint256"
        }
      ],
      "anonymous": false
    },
    {
      "type": "error",
      "name": "AccessControlBadConfirmation",
      "inputs": []
    },
    {
      "type": "error",
      "name": "AccessControlUnauthorizedAccount",
      "inputs": [
        {
          "name": "account",
          "type": "address",
          "internalType": "address"
        },
        {
          "name": "neededRole",
          "type": "bytes32",
          "internalType": "bytes32"
        }
      ]
    },
    {
      "type": "error",
      "name": "BeforeCountdown",
      "inputs": [
        {
          "name": "currentTimestamp",
          "type": "uint64",
          "internalType": "uint64"
        },
        {
          "name": "countdownTimestamp",
          "type": "uint64",
          "internalType": "uint64"
        }
      ]
    },
    {
      "type": "error",
      "name": "ECDSAInvalidSignature",
      "inputs": []
    },
    {
      "type": "error",
      "name": "ECDSAInvalidSignatureLength",
      "inputs": [
        {
          "name": "length",
          "type": "uint256",
          "internalType": "uint256"
        }
      ]
    },
    {
      "type": "error",
      "name": "ECDSAInvalidSignatureS",
      "inputs": [
        {
          "name": "s",
          "type": "bytes32",
          "internalType": "bytes32"
        }
      ]
    },
    {
      "type": "error",
      "name": "ERC20InsufficientAllowance",
      "inputs": [
        {
          "name": "spender",
          "type": "address",
          "internalType": "address"
        },
        {
          "name": "allowance",
          "type": "uint256",
          "internalType": "uint256"
        },
        {
          "name": "needed",
          "type": "uint256",
          "internalType": "uint256"
        }
      ]
    },
    {
      "type": "error",
      "name": "ERC20InsufficientBalance",
      "inputs": [
        {
          "name": "sender",
          "type": "address",
          "internalType": "address"
        },
        {
          "name": "balance",
          "type": "uint256",
          "internalType": "uint256"
        },
        {
          "name": "needed",
          "type": "uint256",
          "internalType": "uint256"
        }
      ]
    },
    {
      "type": "error",
      "name": "ERC20InvalidApprover",
      "inputs": [
        {
          "name": "approver",
          "type": "address",
          "internalType": "address"
        }
      ]
    },
    {
      "type": "error",
      "name": "ERC20InvalidReceiver",
      "inputs": [
        {
          "name": "receiver",
          "type": "address",
          "internalType": "address"
        }
      ]
    },
    {
      "type": "error",
      "name": "ERC20InvalidSender",
      "inputs": [
        {
          "name": "sender",
          "type": "address",
          "internalType": "address"
        }
      ]
    },
    {
      "type": "error",
      "name": "ERC20InvalidSpender",
      "inputs": [
        {
          "name": "spender",
          "type": "address",
          "internalType": "address"
        }
      ]
    },
    {
      "type": "error",
      "name": "ERC2612ExpiredSignature",
      "inputs": [
        {
          "name": "deadline",
          "type": "uint256",
          "internalType": "uint256"
        }
      ]
    },
    {
      "type": "error",
      "name": "ERC2612InvalidSigner",
      "inputs": [
        {
          "name": "signer",
          "type": "address",
          "internalType": "address"
        },
        {
          "name": "owner",
          "type": "address",
          "internalType": "address"
        }
      ]
    },
    {
      "type": "error",
      "name": "InvalidAccountNonce",
      "inputs": [
        {
          "name": "account",
          "type": "address",
          "internalType": "address"
        },
        {
          "name": "currentNonce",
          "type": "uint256",
          "internalType": "uint256"
        }
      ]
    },
    {
      "type": "error",
      "name": "InvalidShortString",
      "inputs": []
    },
    {
      "type": "error",
      "name": "OverCap",
      "inputs": [
        {
          "name": "amount",
          "type": "uint256",
          "internalType": "uint256"
        },
        {
          "name": "cap",
          "type": "uint256",
          "internalType": "uint256"
        }
      ]
    },
    {
      "type": "error",
      "name": "OverMax",
      "inputs": [
        {
          "name": "amount",
          "type": "uint256",
          "internalType": "uint256"
        },
        {
          "name": "max",
          "type": "uint256",
          "internalType": "uint256"
        }
      ]
    },
    {
      "type": "error",
      "name": "StringTooLong",
      "inputs": [
        {
          "name": "str",
          "type": "string",
          "internalType": "string"
        }
      ]
    },
    {
      "type": "error",
      "name": "UnderFloor",
      "inputs": [
        {
          "name": "amount",
          "type": "uint256",
          "internalType": "uint256"
        },
        {
          "name": "floor",
          "type": "uint256",
          "internalType": "uint256"
        }
      ]
    }
  ],
  "bytecode": {
    "object": "0x610200604052346200213f5760006101e05262005968803803809162000028826102006200216e565b610200396102008181019112620010ce57610200516001600160401b038111620010ce57816200005c9161020001620021b7565b610220516001600160401b038111620010ce57826200007f9161020001620021b7565b610240519092906001600160401b038111620010ce5781620000a59161020001620021b7565b6102605190916001600160401b038211620010ce57620000c99161020001620021b7565b6102805190916001600160a01b0382168203620010ce576102a0516101c0526102c0516101a0526102e051946200010261030062002212565b936200011061032062002227565b926200011e61034062002227565b976200012c61036062002227565b966200013a61038062002227565b96620001486103a062002227565b95620001566103c062002227565b61018052620001676103e062002237565b9a6040519182604081011060018060401b0360408501111762001705576040838101905260018352603160f81b602084015281516001600160401b0381116200170557620001b76003546200224c565b601f8111620020ef575b508060206001601f8311146200207b576101e051916200206f575b508160011b916000199060031b1c1916176003555b8051906001600160401b03821162001705578190620002126004546200224c565b601f811162002013575b506020906001601f84111462001f9a576101e0519262001f8e575b50508160011b916000199060031b1c1916176004555b6200025881620022eb565b61012052620002678262002477565b6101405260208151910120908160e0526020815191012080610100524660a052604051917f8b73c3c69bb8fe3d512ecc4cf759cc79239f7b179b0ffacaa9a75d522b39400f6020840152604083015260608201524660808201523060a082015260a081528060c081011060018060401b0360c083011117620017055760c08101604052602081519101206080523060c0526200030333620025b5565b62001f67575b600f80546001600160a01b03199081166001600160a01b03938416179091556011805490911692821692831781556101e0805193909352600a602090815283516040808220805460ff199081166001908117909255339093528651828120805485168317905530905295518190208054909216861790915591548251931683528201929092527fac7e3e62fc00fa869bd194b4d6cf286fad9c003cf5cc9c9b3d4d0eb3924ad222918291a1806040805133815260016020820152a16040805130815260016020820152a1600f5460405163dacda92f60e01b8152906001600160a01b0316602082600481845afa918215620010de576101e0519262001f1b575b50602060049160405192838092631ab3b56360e31b82525afa8015620010de576101e0519062001ed1575b6040516364e329cb60e11b81523060048201526001600160a01b0391821660248201526101e051909360209350849260449284929091165af1908115620010de576101e0519162001e8f575b50601080546001600160a01b031981166001600160a01b0384161790915590331562001e7457600f5460405163525afd2b60e11b815290602090829060049082906001600160a01b03165afa908115620010de576101e0519162001e50575b506001600160a01b0381163b15620010ce5760405163acdc7bf760e01b81523060048201526101e051816024816001600160a01b0386165afa8015620010de5762001e3e575b506001600160a01b0381163b15620010ce5760405163acdc7bf760e01b81526101e08051600483015251816024816001600160a01b0386165afa8015620010de5762001e23575b506001600160a01b0381163b15620010ce5760405163acdc7bf760e01b81523360048201526101e0519091829060249082906001600160a01b03165afa8015620010de5762001e08575b506101e05182166001600160a01b0382161715158062001dec575b801562001de3575b801562001dda575b801562001dd1575b801562001db1575b801562001d94575b1562001b575750506200060d8133620026f0565b6010546001600160a01b03168015158062001b4e575b8062001b18575b8062001af4575b62001ab9573314158062001ab0575b8062001a96575b8062001a7c575b62001a4e57306101e051526101e05160205260406101e051205460018060a01b03600f541690604051633462425760e01b8152602081600481865afa908115620010de576101e0519162001a04575b50620006b46127109161ffff6002549116620022d7565b041115620017fe575b50610160528051906001600160401b03821162001705578190620006e3600b546200224c565b601f8111620017a4575b506020906001601f8411146200172b576101e051926200171f575b50508160011b916000199060031b1c191617600b555b8051906001600160401b038211620017055781906200073f600c546200224c565b601f8111620016ab575b506020906001601f84111462001632576101e0519262001626575b50508160011b916000199060031b1c191617600c555b60118054610180516001600160f01b031960f09190911b1661ffff60a01b60a086811b919091166001600160a01b0384161761ffff60b01b60b08c811b919091169190911761ffff60e01b60e08b901b161761ffff60c01b60c08a901b161761ffff60d01b60d088901b161792909217938490556101c051600d556101a051600e55601280546001600160401b038b166001600160401b031982161790915597929693620009b9926200095192620008fa92620008a292620008499261ffff9183901c821692901c16620022aa565b61ffff8d8160f01b6101805160f01b16908260a01b8c60a01b168d60018060a01b031617908360b01b9060b01b16178260e01b8960e01b16178260c01b8a60c01b16178260d01b8b60d01b16171760e01c1690620022aa565b61ffff8060f01b6101805160f01b168d8260a01b8b60a01b1660018060a01b038d1617908360b01b9060b01b16178260e01b8860e01b16178260c01b8960c01b16178260d01b8a60d01b16171760c01c1690620022aa565b61ffff8060f01b6101805160f01b168160a01b8960a01b1660018060a01b038b16178d8360b01b9060b01b16178260e01b8760e01b16178260c01b8860c01b16178260d01b8960d01b16171760d01c1690620022aa565b6101805160d086901b61ffff60d01b1660c086901b61ffff60c01b1660e086901b61ffff60e01b1660b08e901b61ffff60b01b166001600160a01b038c1660a08c901b61ffff60a01b16171717171760f091821b6001600160f01b03191617901c90620022aa565b600f54604051630565fa2160e11b81526001600160a01b0390911699916020826004818e5afa918215620010de576101e05192620015dd575b5061ffff809116911681116200154957506040516305dd8cdb60e41b81526020816004818d5afa908115620010de576101e05191620014fb575b5061271062000a4561ffff9260025493849116620022d7565b046101c05111620014495760405163082c349f60e21b81526020816004818e5afa8015620010de5782916101e05191620013f8575b506127109161ffff62000a8e9216620022d7565b046101c051106200134657604051600162440a6960e01b031981526020816004818e5afa8015620010de5782916101e05191620012f5575b506127109161ffff62000ada9216620022d7565b046101a0511162001240576040516369d24d1d60e11b81526020816004818e5afa8015620010de5782916101e05191620011ef575b506127109161ffff62000b239216620022d7565b046101a051106200113d575060405163525afd2b60e11b81526020816004818d5afa908115620010de576101e0519162001107575b506001600160a01b0381163b15620010ce5760405163acdc7bf760e01b81526101e080516101805160f01b166001600160a01b038a81169190911760048401529051919283916024918391165afa8015620010de57620010ec575b5060405163af4e4a8960e01b81526020816004818d5afa908115620010de576101e0519162001095575b506001600160401b0342811682821601116200107b576101e0516001600160401b03918216428316018216918a169089161781106200104b57506101e051429088166001600160401b038a1617106200101d5760408051610180805161ffff6001600160f01b031960f092831b811661ffff60a01b60a09c8d1b166001600160a01b039d909d169c909c1761ffff60b01b60b098891b161761ffff60e01b60e0998a1b161761ffff60c01b60c09a8b1b161761ffff60d01b60d09b8c1b16179b8c178b1c821685528351831b81168c1790961c81166020808601919091528351831b87168c1790971c8116948401949094528151811b85168a17871c841660608401528151811b85168a1790971c90921660808201529051851b90911690951790921c928401929092527fdd66d6364f7e5c20c981e9ec421819600fe0405b024a7063bb765707ec0fe6bc949093909290917f2102737de67db768393834eaaf427a0c2f497157ed30d68d5db2a5f43f73bc1b91a17f9bfe8df7626eba5440c007ddf005b2d9658bc845a11a755dbec1af9e72709003604080516101c05181526101a05186820152a16040519160018060401b0316906101e05116178152a1604051602081526000600b5462000db3816200224c565b9081602085015260018116908160001462000ffa575060011462000f99575b5090807e7fc5cd1633c7d02c37b2e999795e5ad366c8f0b3bbb0cc6424160101da193f920390a1604051602081526000600c5462000e10816200224c565b9081602085015260018116908160001462000f67575060011462000eff575b7f9665d4fa523c19b8583c384e19384c6bd55c9a82c29cfbb32f8c790a68022c6e6020856000805160206200590883398151915286860387a17fbb577b9a0cfaf8e997e619d046671124486340ca5e093bf771644ee997ab11378260018060a01b0360105416604051908152a1604051908152a16040516131b69081620027528239608051816124be015260a0518161258a015260c05181612488015260e0518161250d0152610100518161253301526101205181610c3f01526101405181610c69015261016051816114ba0152f35b600c600090815291507fdf6966c971051c3d54ec59162606531493a51404a002842f56009d7e5cf4a8c75b81831062000f4f57505081016040016000805160206200590883398151915262000e2f565b80546040848601015260209092019160010162000f2a565b60ff191660408086019190915291151560051b8401909101915060008051602062005908833981519152905062000e2f565b600b60009081527f0175b7a638427703f0dbe7bb9bbf987a2551717b34e79f33b5b1008d1fa01db9939250905b80821062000fde575090915081016040018162000dd2565b9192600181602092546040858801015201910190929162000fc6565b60ff191660408086019190915291151560051b8401909101915082905062000dd2565b60405163cb531ac160e01b81526101e05188166001600160401b038a16176004820152426024820152604490fd5b604051630b7a0b9b60e01b81526101e05189166001600160401b038b161760048201526024810191909152604490fd5b634e487b7160e01b6101e05152601160045260246101e051fd5b90506020813d602011620010d5575b81620010b3602093836200216e565b81010312620010ce57620010c79062002237565b3862000bdd565b6101e05180fd5b3d9150620010a4565b6040513d6101e051823e3d90fd5b620010f79062002144565b6101e051620010ce573862000bb3565b6200112e915060203d60201162001135575b6200112581836200216e565b81019062002289565b3862000b58565b503d62001119565b6040516369d24d1d60e11b8152906020826004818e5afa918215620010de576101e051926200119c575b60446127106200117c8461ffff8716620022d7565b60405163cb531ac160e01b81526101a05160048201529190046024820152fd5b91506020823d602011620011e6575b81620011ba602093836200216e565b81010312620010ce576200117c6127109161ffff620011db60449562002227565b945050915062001167565b3d9150620011ab565b9150506020813d60201162001237575b816200120e602093836200216e565b81010312620010ce5762000b238261ffff6200122d6127109462002227565b9250509162000b0f565b3d9150620011ff565b604051600162440a6960e01b03198152906020826004818e5afa918215620010de576101e05192620012a2575b6044612710620012828461ffff8716620022d7565b604051630b7a0b9b60e01b81526101a05160048201529190046024820152fd5b91506020823d602011620012ec575b81620012c0602093836200216e565b81010312620010ce57620012826127109161ffff620012e160449562002227565b94505091506200126d565b3d9150620012b1565b9150506020813d6020116200133d575b8162001314602093836200216e565b81010312620010ce5762000ada8261ffff620013336127109462002227565b9250509162000ac6565b3d915062001305565b60405163082c349f60e21b8152906020826004818e5afa918215620010de576101e05192620013a5575b6044612710620013858461ffff8716620022d7565b60405163cb531ac160e01b81526101c05160048201529190046024820152fd5b91506020823d602011620013ef575b81620013c3602093836200216e565b81010312620010ce57620013856127109161ffff620013e460449562002227565b945050915062001370565b3d9150620013b4565b9150506020813d60201162001440575b8162001417602093836200216e565b81010312620010ce5762000a8e8261ffff620014366127109462002227565b9250509162000a7a565b3d915062001408565b6040516305dd8cdb60e41b8152906020826004818e5afa918215620010de576101e05192620014a8575b6044612710620014888461ffff8716620022d7565b604051630b7a0b9b60e01b81526101c05160048201529190046024820152fd5b91506020823d602011620014f2575b81620014c6602093836200216e565b81010312620010ce57620014886127109161ffff620014e760449562002227565b945050915062001473565b3d9150620014b7565b90506020813d60201162001540575b8162001519602093836200216e565b81010312620010ce5761271062000a456200153761ffff9362002227565b92505062000a2c565b3d91506200150a565b604051630565fa2160e11b8152906020826004818e5afa918215620010de576101e0519262001595575b5061ffff60449260405192630b7a0b9b60e01b84526004840152166024820152fd5b91506020823d602011620015d4575b81620015b3602093836200216e565b81010312620010ce5761ffff620015cc60449362002227565b925062001573565b3d9150620015a4565b9091506020813d6020116200161d575b81620015fc602093836200216e565b81010312620010ce5761ffff62001614819262002227565b929150620009f2565b3d9150620015ed565b01519050388062000764565b9250600c6101e0515260206101e05120906101e051935b601f19841685106200168f576001945083601f1981161062001675575b505050811b01600c556200077a565b015160001960f88460031b161c1916905538808062001666565b8181015183556020948501946001909301929091019062001649565b909150600c6101e0515260206101e05120601f840160051c810160208510620016fd575b90849392915b601f830160051c82018110620016ed57505062000749565b60008155859450600101620016d5565b5080620016cf565b634e487b7160e01b6101e05152604160045260246101e051fd5b01519050388062000708565b9250600b6101e0515260206101e05120906101e051935b601f198416851062001788576001945083601f198116106200176e575b505050811b01600b556200071e565b015160001960f88460031b161c191690553880806200175f565b8181015183556020948501946001909301929091019062001742565b909150600b6101e0515260206101e05120601f840160051c810160208510620017f6575b90849392915b601f830160051c82018110620017e6575050620006ed565b60008155859450600101620017ce565b5080620017c8565b306101e051526101e0516020526004602060406101e0512054926040519283809263d3f83ae360e01b82525afa908115620010de576101e05191620019bb575b503015620019a0576001600160a01b038116156200198557306101e05152600160205260406101e0512060018060a01b0382166000526020528160406000205560405182815260018060a01b038216907f8c5be1e5ebec7d5bd14f71427d1e84f3dd0314c0f7b2291e5b200ac8c7c3b92560203092a36101e080516001600160a01b0383811691829052600a602052915160409020805460ff19811660011790915560105490949216903b15620010ce576040516321f8fc8760e21b8152306004820152602481019290925260448201526101e0805160648301525181608481836001600160a01b0387165af18015620010de576200196a575b5060018060a01b03166101e05152600a60205260406101e051209060ff808019845416921615151617905538620006bd565b620019759062002144565b6101e051620010ce573862001938565b604051634a1406b160e11b81526101e0516004820152602490fd5b60405163e602df0560e01b81526101e0516004820152602490fd5b90506020813d602011620019fb575b81620019d9602093836200216e565b81010312620010ce57516001600160a01b0381168103620010ce57386200183e565b3d9150620019ca565b90506020813d60201162001a45575b8162001a22602093836200216e565b81010312620010ce57620006b462001a3d6127109262002227565b91506200069d565b3d915062001a13565b3360005260006020526044604060002054600d5460405191635b342fc560e01b835260048301526024820152fd5b50336000526000602052604060002054600d54106200064e565b5033600052600a60205260ff604060002054161562000647565b50600162000640565b60008080526020526000805160206200594883398151915254600d54604051635b342fc560e01b815260048101929092526024820152604490fd5b5060008080526020526000805160206200594883398151915254600d541062000631565b5060008052600a6020527f13da86008ba1c6922daee3e07db95305ef49ebced9f5467a0b8613fcc6b343e35460ff16156200062a565b50600062000623565b600e5480841162001d7657506012546001600160401b031642811162001d4d57506101e0519182918291908183166001600160a01b038216171562001cfe575b6101e0513392166001600160a01b0391909116171462001c90575b9062001c1762001c249362001c178462001c1d9562001c71575b8262001c3c575b8462001c2a575b7fcd6ca1cb806d36af7e91fe1832ab5649df6b3d055bb98e586a269e6cfdf261b06060604051838152856020820152876040820152a187620026e2565b620026e2565b33620026f0565b6200060d565b62001c368530620026f0565b62001bda565b8262001c4b81600254620026d4565b03600255600080600080516020620059288339815191526020604051878152a362001bd3565b60115462001c8a9082906001600160a01b0316620026f0565b62001bcc565b9060115492612710908161ffff9481868860c01c1662001cb1908a620022d7565b0462001cbd91620026d4565b948660d01c1662001ccf9088620022d7565b0462001cdb91620026d4565b9360f01c62001ceb9086620022d7565b0462001cf791620026d4565b9062001bb2565b6011549450925061ffff915061271062001d458162001d2460a088901c861689620022d7565b04938262001d38828960b01c168a620022d7565b049660e01c1687620022d7565b049262001b97565b6040516311c4941960e01b8152426001600160401b031660048201526024810191909152604490fd5b8360449160405191635b342fc560e01b835260048301526024820152fd5b50336101e05152600a60205260ff60406101e051205416620005f9565b506101e0516101e05152600a60205260ff60406101e051205416620005f1565b508215620005e9565b506000620005e1565b506001620005d9565b506101e051339083166001600160a01b038316171415620005d1565b62001e139062002144565b6101e051620010ce5738620005b6565b62001e2e9062002144565b6101e051620010ce57386200056c565b62001e499062002144565b3862000525565b62001e6d915060203d60201162001135576200112581836200216e565b38620004df565b60405163ec442f0560e01b81526101e0516004820152602490fd5b90506020813d60201162001ec8575b8162001ead602093836200216e565b81010312620010ce5762001ec19062002212565b3862000480565b3d915062001e9e565b506020813d60201162001f12575b8162001eee602093836200216e565b81010312620010ce57516001600160a01b0381168103620010ce5760209062000434565b3d915062001edf565b9091506020813d60201162001f5e575b8162001f3a602093836200216e565b81010312620010ce57516001600160a01b0381168103620010ce5790602062000409565b3d915062001f2b565b6101e0516101e05152600960205262001f873360406101e0512062002647565b5062000309565b01519050388062000237565b925060046101e0515260206101e05120906101e051935b601f198416851062001ff7576001945083601f1981161062001fdd575b505050811b016004556200024d565b015160001960f88460031b161c1916905538808062001fce565b8181015183556020948501946001909301929091019062001fb1565b90915060046101e0515260206101e05120601f840160051c81016020851062002067575b90849392915b601f830160051c82018110620020555750506200021c565b6101e05181558594506001016200203d565b508062002037565b905083015138620001dc565b915060036101e0515260206101e051206101e051925b601f1983168410620020d6576001935082601f19811610620020bc575b5050811b01600355620001f1565b85015160001960f88460031b161c191690553880620020ae565b8581015182556020938401936001909201910162002091565b60036101e0515260206101e05120601f830160051c81016020841062002137575b601f830160051c8201811062002128575050620001c1565b6101e051815560010162002110565b508062002110565b600080fd5b6001600160401b0381116200215857604052565b634e487b7160e01b600052604160045260246000fd5b601f909101601f19168101906001600160401b038211908210176200215857604052565b60005b838110620021a65750506000910152565b818101518382015260200162002195565b81601f820112156200213f5780516001600160401b038111620021585760405192620021ee601f8301601f1916602001856200216e565b818452602082840101116200213f576200220f916020808501910162002192565b90565b51906001600160a01b03821682036200213f57565b519061ffff821682036200213f57565b51906001600160401b03821682036200213f57565b90600182811c921680156200227e575b60208310146200226857565b634e487b7160e01b600052602260045260246000fd5b91607f16916200225c565b908160209103126200213f57516001600160a01b03811681036200213f5790565b91909161ffff80809416911601918211620022c157565b634e487b7160e01b600052601160045260246000fd5b81810292918115918404141715620022c157565b805160209081811015620023695750601f8251116200232757808251920151908083106200231857501790565b82600019910360031b1b161790565b6044906200235b9260405193849263305a27a960e01b84528060048501528251928391826024870152868601910162002192565b601f01601f19168101030190fd5b9192916001600160401b03811162002158576005916200238a83546200224c565b601f811162002440575b5080601f8311600114620023d5575081929394600092620023c9575b50508160011b916000199060031b1c191617905560ff90565b015190503880620023b0565b90601f198316958460005282600020926000905b88821062002427575050836001959697106200240d575b505050811b01905560ff90565b015160001960f88460031b161c1916905538808062002400565b80600185968294968601518155019501930190620023e9565b600084600052601f836000209201851c820191601f8501861c015b8281106200246b57505062002394565b8181556001016200245b565b805160209081811015620024a45750601f8251116200232757808251920151908083106200231857501790565b919291906001600160401b0382116200215857620024c46006546200224c565b601f81116200257b575b5080601f83116001146200250f575081929360009262002503575b50508160011b916000199060031b1c19161760065560ff90565b015190503880620024e9565b90601f19831694600660005282600020926000905b8782106200256257505083600195961062002548575b505050811b0160065560ff90565b015160001960f88460031b161c191690553880806200253a565b8060018596829496860151815501950193019062002524565b60006006600052601f83600020920160051c820191601f850160051c015b828110620025a9575050620024ce565b81815560010162002599565b6001600160a01b031660008181527f5eff886ea0ce6ca488a3d6e336d6c0f75f46d19b42c06ce5ee98e42c96d256c7602052604081205490919060ff16620026435781805260086020526040822081835260205260408220600160ff1982541617905533917f2f8788117e7eff1d82e926ec794901d17c78024a50270940304540a733656f0d8180a4600190565b5090565b91906001830160009082825280602052604082205415600014620026ce5784549468010000000000000000861015620026ba5760018601808255861015620026a657836040949596828552602085200155549382526020522055600190565b634e487b7160e01b83526032600452602483fd5b634e487b7160e01b83526041600452602483fd5b50925050565b91908201809211620022c157565b91908203918211620022c157565b6000805160206200592883398151915260206000926200271385600254620026d4565b6002556001600160a01b031693841584146200273b5780600254036002555b604051908152a3565b848452838252604084208181540190556200273256fe608060408181526004918236101561001657600080fd5b60009260e08435811c92836301ffc9a714611ae35750826306fdde0314611a30578263095ea7b314611a055782630c4fd94d146117a65782630c7b9990146117055782630f96bbd81461169657826315719a611461167557826318160ddd1461165557826323b872dd14611617578263248a9ca3146115eb57826325d61f361461154a5782632f2ff15d146114dd5782632ff2e9dc146114a1578263313ce567146114845782633644e5151461145f57826336568abe1461141857826337c2aa16146113f857826342966c68146113da5782634f7041a5146113b35782635ab0f48e1461132a578263650bfa4b1461105357826365cf7c9b1461102957826367d857e614610fb95782636da54cd414610f925782636fd3acb414610f6d57826370a0823114610f3557826370e08e6114610f0e57826379cc679014610edd5782637bfa851214610d805782637ecebe0014610d4757826384b0196e14610c275782639010d07c14610be557826391d1485414610b9e57826395710e6e14610b7457826395d89b4114610a805782639abbb13a14610844578263a217fddf14610828578263a9059cbb146107f6578263ad5dff73146107b7578263c7b8b46d14610794578263ca15c8731461076b578263cc1776d314610744578263d505accf146105dc57508163d539d012146105bd578163d547741f14610579578163dd62ed3e1461052b578163deb356dd146102da57508063e6ef73d6146102b2578063ec87621c146102785763f963ee6c1461024d57600080fd5b34610274578160031936011261027457600f5490516001600160a01b039091168152602090f35b5080fd5b5034610274578160031936011261027457602090517f241ecf16d79d0f8dbfb92cbc07fe17840425976cf0667f022fe9877caa831b088152f35b503461027457816003193601126102745760115490516001600160a01b039091168152602090f35b838334610274576102ea36611c64565b90936102f4611ccd565b67ffffffffffffffff82116105185750600c906103118254611bc2565b601f81116104c7575b5083601f8211600114610458578495829394959261044d575b50508160011b916000199060031b1c19161781555b81519160209160208452600092815461036081611bc2565b9283602088015260019160018116908160001461040d57506001146103aa575b877f692174546b795b5f983b823621a66e6a3a00bdb803099a0d7fb3611de6840f2f88880389a180f35b60009081529394506000805160206131218339815191525b8385106103fa5750505050820101817f692174546b795b5f983b823621a66e6a3a00bdb803099a0d7fb3611de6840f2f858080610380565b80548786018701529382019381016103c2565b60ff19168689015250505050151560051b8301019050817f692174546b795b5f983b823621a66e6a3a00bdb803099a0d7fb3611de6840f2f858080610380565b013590508580610333565b828552601f1982169560008051602061312183398151915291865b8881106104af57508360019596979810610495575b505050811b018155610348565b0135600019600384901b60f8161c19169055858080610488565b90926020600181928686013581550194019101610473565b828552600080516020613121833981519152601f830160051c8101916020841061050e575b601f0160051c01905b818110610502575061031a565b600081556001016104f5565b90915081906104ec565b634e487b7160e01b845260419052602483fd5b505034610274578060031936011261027457602091610548611b91565b82610551611bac565b6001600160a01b03928316845260018652922091166000908152908352819020549051908152f35b919050346105b957806003193601126105b9576105b591356105b0600161059e611bac565b93838752600860205286200154611d81565b6125b0565b5080f35b8280fd5b505034610274578160031936011261027457602090600d549051908152f35b90849250346105b957816003193601126105b9576105f8611b91565b610600611bac565b916044359360643560843560ff8116810361074057814211610729578860018060a01b039283871694858b526007602052828b20918254926001840190558351928760208501957f6e71edae12b1b97f4d1f60370fef10105fa2faae0126114a169c64845d6126c98752850152868b1660608501528b608085015260a084015260c083015260c08252810181811067ffffffffffffffff821117610714578b525190206106e2916106d9916106b3612485565b908c519161190160f01b83526002830152602282015260c43591604260a4359220612c5a565b90929192612cde565b168181036106f957866106f68787876128de565b80f35b87516325c0072360e11b815292830152602482015260449150fd5b604187634e487b7160e01b6000525260246000fd5b885163313c898160e11b8152808501839052602490fd5b8780fd5b5050503461027457816003193601126102745760209061ffff60115460c01c169051908152f35b509050346105b95760203660031901126105b95760209282913581526009845220549051908152f35b5050503461027457816003193601126102745760209060115460f01c9051908152f35b505050346102745760203660031901126102745760209160ff9082906001600160a01b036107e3611b91565b168152600a855220541690519015158152f35b50505034610274578060031936011261027457602090610821610817611b91565b6024359033611ff3565b5160018152f35b5050503461027457816003193601126102745751908152602090f35b508383346102745761085536611c64565b909361085f611ccd565b67ffffffffffffffff82116105185750600b9061087c8254611bc2565b601f8111610a2f575b5083601f82116001146109c057849582939495926109b5575b50508160011b916000199060031b1c19161781555b8151916020916020845260009281546108cb81611bc2565b928360208801526001916001811690816000146109765750600114610914575b877e7fc5cd1633c7d02c37b2e999795e5ad366c8f0b3bbb0cc6424160101da193f88880389a180f35b60009081529394506000805160206131618339815191525b8385106109635750505050820101817e7fc5cd1633c7d02c37b2e999795e5ad366c8f0b3bbb0cc6424160101da193f8580806108eb565b805487860187015293820193810161092c565b60ff19168689015250505050151560051b8301019050817e7fc5cd1633c7d02c37b2e999795e5ad366c8f0b3bbb0cc6424160101da193f8580806108eb565b01359050858061089e565b828552601f1982169560008051602061316183398151915291865b888110610a17575083600195969798106109fd575b505050811b0181556108b3565b0135600019600384901b60f8161c191690558580806109f0565b909260206001819286860135815501940191016109db565b828552600080516020613161833981519152601f830160051c81019160208410610a76575b601f0160051c01905b818110610a6a5750610885565b60008155600101610a5d565b9091508190610a54565b83828634610b715780600319360112610b7157508151918260008354610aa581611bc2565b9081845260209560019187600182169182600014610b4a575050600114610aed575b505050610ae99291610ada910385611c42565b51928284938452830190611b51565b0390f35b600090815286935091907f8a35acfbc15ff81a39ae7d344fd709f28e8600b4aa8c65c6b64bfe7fe36bd19b5b828410610b325750505082010181610ada610ae9610ac7565b8054848a018601528895508794909301928101610b19565b60ff19168782015293151560051b86019093019350849250610ada9150610ae99050610ac7565b80fd5b5050503461027457816003193601126102745760105490516001600160a01b039091168152602090f35b509050346105b957816003193601126105b95781602093610bbd611bac565b9235815260088552209060018060a01b0316600052825260ff81600020541690519015158152f35b509050346105b957816003193601126105b957602092610c119135815260098452826024359120612c2c565b905491519160018060a01b039160031b1c168152f35b90838534610b715780600319360112610b7157610c637f0000000000000000000000000000000000000000000000000000000000000000612a68565b90610c8d7f0000000000000000000000000000000000000000000000000000000000000000612b6c565b92805193602093602086019686881067ffffffffffffffff891117610d325750959390610ce883602092878b999652868652610cdb82519a8b9a600f60f81b8c5280878d01528b0190611b51565b91898303908a0152611b51565b924660608801523060808801528460a088015286840360c088015251928381520193925b828110610d1b57505050500390f35b835185528695509381019392810192600101610d0c565b604190634e487b7160e01b6000525260246000fd5b505050346102745760203660031901126102745760209181906001600160a01b03610d70611b91565b1681526007845220549051908152f35b8385833461027457602090816003193601126105b957610d9e611b91565b610da6611ccd565b601180546001600160a01b0319166001600160a01b039283169081179091558452600a8352848420805460ff19166001179055600f54855163525afd2b60e11b815290849082908590829086165afa908115610ed3579082918691610ea6575b5016906011541691813b15610ea25782602486928851948593849263acdc7bf760e01b84528301525afa8015610e9857610e67575b507f52a472970ea56cfa059fd5f6e020448126236d196732af0f54dde5f2b3424362929351908152a180f35b92610e927f52a472970ea56cfa059fd5f6e020448126236d196732af0f54dde5f2b342436294611bfc565b92610e3b565b85513d86823e3d90fd5b8480fd5b610ec69150853d8711610ecc575b610ebe8183611c42565b810190611cae565b87610e06565b503d610eb4565b86513d87823e3d90fd5b5050503461027457366003190112610b71576106f6610efa611b91565b60243590610f09823383611f20565b6125eb565b5050503461027457816003193601126102745760209061ffff60115460b01c169051908152f35b505050346102745760203660031901126102745760209181906001600160a01b03610f5e611b91565b16815280845220549051908152f35b838534610b715780600319360112610b7157506011549051911c61ffff168152602090f35b5050503461027457816003193601126102745760209061ffff60115460d01c169051908152f35b505050346102745760203660031901126102745760207fbb577b9a0cfaf8e997e619d046671124486340ca5e093bf771644ee997ab113791610ff9611b91565b611001611d47565b601080546001600160a01b0319166001600160a01b039290921691821790559051908152a180f35b5050503461027457816003193601126102745760209067ffffffffffffffff601254169051908152f35b848285346105b957806003193601126105b9578135602435611073611ccd565b81600d5580600e5560018060a01b03600f54168351906305dd8cdb60e41b9081835260209283818981855afa90811561122c57899161130d575b506002549161271093846110c68561ffff8096166128cb565b0488116112db5750875163082c349f60e21b8082529086818c81865afa908c82156112535785889361110193899391611236575b50166128cb565b0488106112a957508751600162440a6960e01b03198082529086818c81865afa908c82156112535785889361113e938993916112365750166128cb565b04871161125e575087516369d24d1d60e11b8082529086818c81865afa908c821561125357858893611178938993916112365750166128cb565b0487106111b35750505050507f9bfe8df7626eba5440c007ddf005b2d9658bc845a11a755dbec1af9e7270900394508351928352820152a180f35b8593959192949697508989518094819382525afa91821561122c57906111e79493929160449a926111ff575b5050166128cb565b0491519263cb531ac160e01b84528301526024820152fd5b61121e9250803d10611225575b6112168183611c42565b810190611dd3565b89806111df565b503d61120c565b87513d8b823e3d90fd5b61124d91508b3d8d11611225576112168183611c42565b386110fa565b8b51903d90823e3d90fd5b8593959192949697508989518094819382525afa91821561122c57906112919493929160449a926111ff575050166128cb565b04915192630b7a0b9b60e01b84528301526024820152fd5b85939591929496508989518094819382525afa91821561122c57906111e79493929160449a926111ff575050166128cb565b85939591929496508989518094819382525afa91821561122c57906112919493929160449a926111ff575050166128cb565b6113249150843d8611611225576112168183611c42565b896110ad565b50505034610274578060031936011261027457611345611b91565b90602435801515808203610ea2576113a57fac7e3e62fc00fa869bd194b4d6cf286fad9c003cf5cc9c9b3d4d0eb3924ad22294611380611ccd565b60018060a01b031692838752600a6020528487209060ff801983541691151516179055565b82519182526020820152a180f35b5050503461027457816003193601126102745760209061ffff60115460a01c169051908152f35b848234610274576020366003190112610274576106f69035336125eb565b50505034610274578160031936011261027457602090600e549051908152f35b50838334610274578060031936011261027457611433611bac565b90336001600160a01b0383160361145057506105b59192356125b0565b5163334bd91960e11b81528390fd5b5050503461027457816003193601126102745760209061147d612485565b9051908152f35b505050346102745781600319360112610274576020905160128152f35b50505034610274578160031936011261027457602090517f00000000000000000000000000000000000000000000000000000000000000008152f35b509050346105b957816003193601126105b95735906114fa611bac565b90828452600860205261151260018286200154611d81565b61151c8284612971565b611524578380f35b9183526009602052908220611542916001600160a01b031690612fa6565b503880808380f35b838534610b715780600319360112610b71578151918282600c5461156d81611bc2565b9081845260209560019187600182169182600014610b4a5750506001146115a157505050610ae99291610ada910385611c42565b9190869350600c83526000805160206131218339815191525b8284106115d35750505082010181610ada610ae9610ac7565b8054848a0186015288955087949093019281016115ba565b509050346105b95760203660031901126105b95781602093600192358152600885522001549051908152f35b5050503461027457606036600319011261027457602090610821611639611b91565b611641611bac565b60443591611650833383611f20565b611ff3565b505050346102745781600319360112610274576020906002549051908152f35b8434610b715780600319360112610b715761168e611d47565b6106f6611ded565b509050346105b95760203660031901126105b957356001600160a01b03811691908290036105b9577f9665d4fa523c19b8583c384e19384c6bd55c9a82c29cfbb32f8c790a68022c6e916020916116eb611d47565b600f80546001600160a01b0319168317905551908152a180f35b838534610b715780600319360112610b71578151918282600b5461172881611bc2565b9081845260209560019187600182169182600014610b4a57505060011461175c57505050610ae99291610ada910385611c42565b9190869350600b83526000805160206131618339815191525b82841061178e5750505082010181610ada610ae9610ac7565b8054848a018601528895508794909301928101611775565b9092915034611a015760c0366003190112611a015782359261ffff9182851685036119fd576024359483861686036119f95760443584811681036107405760643585811681036119f5576084359186831683036119f15760a43598878a168a036119ed57611812611ccd565b6011805460d09590951b61ffff60d01b1660c09490941b61ffff60c01b1692871b61ffff60e01b1660b092831b61ffff60b01b166001600160a01b0396871660a098891b61ffff60a01b16171717929092179290921760f09990991b6001600160f01b03191698909817978890559187901c851696959186901c8516906118a8868861189e858c611da7565b961c168095611da7565b946118b9878960c01c168097611da7565b968a6118d96118ce838c60d01c16809b611da7565b9a60f01c809b611da7565b93600f5416865194630565fa2160e11b9081875260209687818881875afa9485156119e25790869291956119c1575b5081169316831161195d578d7f2102737de67db768393834eaaf427a0c2f497157ed30d68d5db2a5f43f73bc1b60c08f8f8f8f8f8f8f8f82519788528701528501526060840152608083015260a0820152a180f35b8592918e9689928784518094819382525afa9384156119b75760449794611998575b505051630b7a0b9b60e01b815293840152166024820152fd5b6119af929450803d10611225576112168183611c42565b91868061197f565b82513d89823e3d90fd5b829195506119db90893d8b11611225576112168183611c42565b9490611908565b8a51903d90823e3d90fd5b8a80fd5b8980fd5b8880fd5b8680fd5b8580fd5b8380fd5b50505034610274578060031936011261027457602090610821611a26611b91565b60243590336128de565b838534610b715780600319360112610b71578151918282600354611a5381611bc2565b9081845260209560019187600182169182600014610b4a575050600114611a8757505050610ae99291610ada910385611c42565b9190869350600383527fc2575a0e9e593c00f959f8c92f12db2869c3395a3b0502d05e2516446f71f85b5b828410611acb5750505082010181610ada610ae9610ac7565b8054848a018601528895508794909301928101611ab2565b859083346105b95760203660031901126105b9573563ffffffff60e01b81168091036105b95760209250635a05180f60e01b8114908115611b26575b5015158152f35b637965db0b60e01b811491508115611b40575b5083611b1f565b6301ffc9a760e01b14905083611b39565b919082519283825260005b848110611b7d575050826000602080949584010152601f8019910116010190565b602081830181015184830182015201611b5c565b600435906001600160a01b0382168203611ba757565b600080fd5b602435906001600160a01b0382168203611ba757565b90600182811c92168015611bf2575b6020831014611bdc57565b634e487b7160e01b600052602260045260246000fd5b91607f1691611bd1565b67ffffffffffffffff8111611c1057604052565b634e487b7160e01b600052604160045260246000fd5b6040810190811067ffffffffffffffff821117611c1057604052565b90601f8019910116810190811067ffffffffffffffff821117611c1057604052565b906020600319830112611ba75760043567ffffffffffffffff92838211611ba75780602383011215611ba7578160040135938411611ba75760248483010111611ba7576024019190565b90816020910312611ba757516001600160a01b0381168103611ba75790565b3360009081527fd2cf39daed5d1f19b94ebcb0e90379495248bb9273a9602b62333dc54d99516760205260409020547f241ecf16d79d0f8dbfb92cbc07fe17840425976cf0667f022fe9877caa831b089060ff1615611d295750565b6044906040519063e2517d3f60e01b82523360048301526024820152fd5b3360009081527f5eff886ea0ce6ca488a3d6e336d6c0f75f46d19b42c06ce5ee98e42c96d256c7602052604081205460ff1615611d295750565b80600052600860205260406000203360005260205260ff6040600020541615611d295750565b91909161ffff80809416911601918211611dbd57565b634e487b7160e01b600052601160045260246000fd5b90816020910312611ba7575161ffff81168103611ba75790565b6000903082526020918083526040808220549360018060a01b039060048183600f541685519283809263d3f83ae360e01b82525afa908115611edc579083918691611ee6575b5016611e408782306128de565b808552600a825283852092835493600160ff19861617905560105416813b156119fd578451976321f8fc8760e21b89523060048a015260248901526044880152846064880152848760848183855af1968715611edc57611ebf9697611ec1575b5060ff9291600a918652521691209060ff801983541691151516179055565b565b91600a9195611ed260ff9594611bfc565b9591509192611ea0565b84513d87823e3d90fd5b809250838092503d8311611f19575b611eff8183611c42565b81010312610ea257518281168103610ea257829038611e33565b503d611ef5565b9160018060a01b038093169160009383855260016020526040938486209183169182875260205284862054926000198403611f5f575b50505050505050565b848410611fc357508015611fab578115611f9357855260016020528385209085526020520391205538808080808080611f56565b8451634a1406b160e11b815260048101879052602490fd5b845163e602df0560e01b815260048101879052602490fd5b8551637dc7a0d960e11b81526001600160a01b039190911660048201526024810184905260448101859052606490fd5b6001600160a01b03811692831561246c576001600160a01b03831693841561245357600f5460405163525afd2b60e11b815260009691602090829060049082906001600160a01b03165afa9081156123f7578791612434575b506001600160a01b0316803b156119f95760405163acdc7bf760e01b808252306004830152908881602481865afa801561241657612421575b50813b15610740576040518181528460048201528881602481865afa801561241657908991612402575b5050813b1561074057879060246040518094819382528660048301525afa80156123f7579087916123e3575b50506010546001600160a01b031682811492831590816123d8575b81156123cf575b81156123c6575b81156123bd575b81156123a7575b508015612391575b156121c85750505081612135612135928561213a9695612e39565b612f12565b308152806020526040812054906004602060018060a01b03600f541660405192838092633462425760e01b82525afa9182156121bc576127109261218c929061219d575b5061ffff60025491166128cb565b04111561219557565b611ebf611ded565b6121b6915060203d602011611225576112168183611c42565b3861217e565b604051903d90823e3d90fd5b600e54808511612373575067ffffffffffffffff80601254168042106123525750506121359361213a96959361213593612268938a908b928c94612309575b146122ab575b8061226393946122639261228e575b8361227f575b8561226f575b7fcd6ca1cb806d36af7e91fe1832ab5649df6b3d055bb98e586a269e6cfdf261b06060604051848152866020820152886040820152a1612d70565b612d70565b8483612e39565b61227a86308b612e39565b612228565b612289848a612d7d565b612222565b6011546122a69083906001600160a01b03168b612e39565b61221c565b61226390612300612263946122e36122e36122f66122ea978a6122e36011549a8b996127108098819561ffff809e60c01c16906128cb565b0490612d63565b988b60d01c168d6128cb565b9660f01c896128cb565b9350905061220d565b9350915050601154906127109061ffff9161234b8161232d858760a01c16896128cb565b04938261233f828860b01c168a6128cb565b049560e01c16876128cb565b0493612207565b6040516311c4941960e01b8152429092166004830152602482015260449150fd5b8460449160405191635b342fc560e01b835260048301526024820152fd5b50818752600a60205260ff60408820541661211a565b885250600a602052604087205460ff1638612112565b8515915061210b565b60009150612104565b600091506120fd565b8383141591506120f6565b6123ec90611bfc565b6119fd5785386120db565b6040513d89823e3d90fd5b61240b90611bfc565b6107405787386120af565b6040513d8b823e3d90fd5b61242d90989198611bfc565b9638612085565b61244d915060203d602011610ecc57610ebe8183611c42565b3861204c565b60405163ec442f0560e01b815260006004820152602490fd5b604051634b637e8f60e11b815260006004820152602490fd5b307f00000000000000000000000000000000000000000000000000000000000000006001600160a01b03161480612587575b156124e0577f000000000000000000000000000000000000000000000000000000000000000090565b60405160208101907f8b73c3c69bb8fe3d512ecc4cf759cc79239f7b179b0ffacaa9a75d522b39400f82527f000000000000000000000000000000000000000000000000000000000000000060408201527f000000000000000000000000000000000000000000000000000000000000000060608201524660808201523060a082015260a0815260c0810181811067ffffffffffffffff821117611c105760405251902090565b507f000000000000000000000000000000000000000000000000000000000000000046146124b7565b6125ba82826129f1565b91826125c557505090565b6000918252600960205260409091206125e7916001600160a01b031690613030565b5090565b6001600160a01b03811691821561246c57600f5460405163525afd2b60e11b815260009491602090829060049082906001600160a01b03165afa90811561287a5785916128ac575b506001600160a01b0316803b15610ea25760405163acdc7bf760e01b808252306004830152908681602481865afa80156123f757612899575b50813b156119fd576040518181528360048201528681602481865afa80156123f757908791612885575b5050813b156119fd57859060246040518094819382528460048301525afa801561287a57908591612866575b50506010546001600160a01b0316818114918215908161285c575b8115612853575b811561284a575b8115612841575b811561282b575b508015612815575b1561272057505090612135612717928483612e39565b61213a81612f12565b600e548084116127f7575067ffffffffffffffff80601254168042106123525750506127179392612135926122689287889189936127b1575b156122ab578061226393946122639261228e578361227f578561226f577fcd6ca1cb806d36af7e91fe1832ab5649df6b3d055bb98e586a269e6cfdf261b06060604051848152866020820152886040820152a1612d70565b9250505060115461271061ffff906127f0816127d2848660a01c16886128cb565b0492826127e4828760b01c16896128cb565b049460e01c16866128cb565b0492612759565b8360449160405191635b342fc560e01b835260048301526024820152fd5b50848052600a60205260ff604086205416612701565b865250600a602052604085205460ff16386126f9565b841591506126f2565b600191506126eb565b600091506126e4565b82151591506126dd565b61286f90611bfc565b611a015783386126c2565b6040513d87823e3d90fd5b61288e90611bfc565b6119fd578538612696565b6128a590969196611bfc565b943861266c565b6128c5915060203d602011610ecc57610ebe8183611c42565b38612633565b81810292918115918404141715611dbd57565b6001600160a01b03908116918215612958571691821561293f5760207f8c5be1e5ebec7d5bd14f71427d1e84f3dd0314c0f7b2291e5b200ac8c7c3b925918360005260018252604060002085600052825280604060002055604051908152a3565b604051634a1406b160e11b815260006004820152602490fd5b60405163e602df0560e01b815260006004820152602490fd5b906000918083526008602052604083209160018060a01b03169182845260205260ff604084205416156000146129ec5780835260086020526040832082845260205260408320600160ff198254161790557f2f8788117e7eff1d82e926ec794901d17c78024a50270940304540a733656f0d339380a4600190565b505090565b906000918083526008602052604083209160018060a01b03169182845260205260ff6040842054166000146129ec578083526008602052604083208284526020526040832060ff1981541690557ff6391f5c32d9c69d2a47ea670b442974b53935d1edc7fd64eb21e047a839171b339380a4600190565b60ff8114612aa65760ff811690601f8211612a945760405191612a8a83611c26565b8252602082015290565b604051632cd44ac360e21b8152600490fd5b50604051600554816000612ab983611bc2565b80835292602090600190818116908115612b485750600114612ae7575b5050612ae492500382611c42565b90565b91509260056000527f036b6384b5eca791c62761152d0c79bb0604c104a5fb6f4eb0703f3154bb3db0936000925b828410612b305750612ae49450505081016020013880612ad6565b85548785018301529485019486945092810192612b15565b91505060209250612ae494915060ff191682840152151560051b8201013880612ad6565b60ff8114612b8e5760ff811690601f8211612a945760405191612a8a83611c26565b50604051600654816000612ba183611bc2565b80835292602090600190818116908115612b485750600114612bcb575050612ae492500382611c42565b91509260066000527ff652222313e28459528d920b65115c16c04f3efc82aaedc97be59f3f377c0d3f936000925b828410612c145750612ae49450505081016020013880612ad6565b85548785018301529485019486945092810192612bf9565b8054821015612c445760005260206000200190600090565b634e487b7160e01b600052603260045260246000fd5b91907f7fffffffffffffffffffffffffffffff5d576e7357a4501ddfe92f46681b20a08411612cd257926020929160ff608095604051948552168484015260408301526060820152600092839182805260015afa156121bc5780516001600160a01b03811615612cc957918190565b50809160019190565b50505060009160039190565b6004811015612d4d5780612cf0575050565b60018103612d0a5760405163f645eedf60e01b8152600490fd5b60028103612d2b5760405163fce698f760e01b815260048101839052602490fd5b600314612d355750565b602490604051906335e2f38360e21b82526004820152fd5b634e487b7160e01b600052602160045260246000fd5b91908201809211611dbd57565b91908203918211611dbd57565b9091906001600160a01b0381169081612dc75750600080516020613141833981519152602084612db260009596600254612d63565b6002555b8060025403600255604051908152a3565b92600082815280602052604081205494828610612e085750818160406000805160206131418339815191529460009798876020965283865203912055612db6565b60405163391434e360e21b81526001600160a01b039190911660048201526024810186905260448101839052606490fd5b6001600160a01b0380821692909183612ea1575060008051602061314183398151915291602091612e6c86600254612d63565b6002555b169384612e895780600254036002555b604051908152a3565b84600052600082526040600020818154019055612e80565b60009084825281602052604082205490868210612ee0575091816040876020958860008051602061314183398151915298965283875203912055612e70565b60405163391434e360e21b81526001600160a01b03919091166004820152602481019190915260448101869052606490fd5b6010546001600160a01b03918216911681141580612f9d575b80612f84575b80612f6b575b612f3e5750565b60005260006020526044604060002054600d5460405191635b342fc560e01b835260048301526024820152fd5b50806000526000602052604060002054600d5410612f37565b5080600052600a60205260ff6040600020541615612f31565b50801515612f2b565b9190600183016000908282528060205260408220541560001461302a57845494680100000000000000008610156130165783613006612fef886001604098999a01855584612c2c565b819391549060031b91821b91600019901b19161790565b9055549382526020522055600190565b634e487b7160e01b83526041600452602483fd5b50925050565b906001820190600092818452826020526040842054908115156000146131195760001991808301818111613105578254908482019182116130f1578181036130bc575b505050805480156130a85782019161308b8383612c2c565b909182549160031b1b191690555582526020526040812055600190565b634e487b7160e01b86526031600452602486fd5b6130dc6130cc612fef9386612c2c565b90549060031b1c92839286612c2c565b90558652846020526040862055388080613073565b634e487b7160e01b88526011600452602488fd5b634e487b7160e01b87526011600452602487fd5b505050509056fedf6966c971051c3d54ec59162606531493a51404a002842f56009d7e5cf4a8c7ddf252ad1be2c89b69c2b068fc378daa952ba7f163c4a11628f55a4df523b3ef0175b7a638427703f0dbe7bb9bbf987a2551717b34e79f33b5b1008d1fa01db9a26469706673582212205ae15b136d6a110054216e2740db96d155fa8081bf8daa1329b49a494f93c53b64736f6c63430008170033692174546b795b5f983b823621a66e6a3a00bdb803099a0d7fb3611de6840f2fddf252ad1be2c89b69c2b068fc378daa952ba7f163c4a11628f55a4df523b3efad3228b676f7d3cd4284a5443f17f1962b36e491b30a40b2405849e597ba5fb5",
    "linkReferences": {}
  },
  "methodIdentifiers": {
    "ADMIN_setAmmCzusdPair(address)": "67d857e6",
    "ADMIN_setTenXSettings(address)": "0f96bbd8",
    "ADMIN_zap()": "15719a61",
    "DEFAULT_ADMIN_ROLE()": "a217fddf",
    "DOMAIN_SEPARATOR()": "3644e515",
    "INITIAL_SUPPLY()": "2ff2e9dc",
    "MANAGER_ROLE()": "ec87621c",
    "MANAGER_setDescriptionMarkdownCID(string)": "deb356dd",
    "MANAGER_setIsExempt(address,bool)": "5ab0f48e",
    "MANAGER_setMaxes(uint256,uint256)": "650bfa4b",
    "MANAGER_setTaxReceiver(address)": "7bfa8512",
    "MANAGER_setTaxes(uint16,uint16,uint16,uint16,uint16,uint16)": "0c4fd94d",
    "MANAGER_setTokenLogoCID(string)": "9abbb13a",
    "allowance(address,address)": "dd62ed3e",
    "ammCzusdPair()": "95710e6e",
    "approve(address,uint256)": "095ea7b3",
    "balanceMax()": "d539d012",
    "balanceOf(address)": "70a08231",
    "burn(uint256)": "42966c68",
    "burnFrom(address,uint256)": "79cc6790",
    "buyBurn()": "70e08e61",
    "buyLpFee()": "6fd3acb4",
    "buyTax()": "4f7041a5",
    "decimals()": "313ce567",
    "descriptionMarkdownCID()": "25d61f36",
    "eip712Domain()": "84b0196e",
    "getRoleAdmin(bytes32)": "248a9ca3",
    "getRoleMember(bytes32,uint256)": "9010d07c",
    "getRoleMemberCount(bytes32)": "ca15c873",
    "grantRole(bytes32,address)": "2f2ff15d",
    "hasRole(bytes32,address)": "91d14854",
    "isExempt(address)": "ad5dff73",
    "launchTimestamp()": "65cf7c9b",
    "name()": "06fdde03",
    "nonces(address)": "7ecebe00",
    "permit(address,address,uint256,uint256,uint8,bytes32,bytes32)": "d505accf",
    "renounceRole(bytes32,address)": "36568abe",
    "revokeRole(bytes32,address)": "d547741f",
    "sellBurn()": "6da54cd4",
    "sellLpFee()": "c7b8b46d",
    "sellTax()": "cc1776d3",
    "supportsInterface(bytes4)": "01ffc9a7",
    "symbol()": "95d89b41",
    "taxReceiver()": "e6ef73d6",
    "tenXSettings()": "f963ee6c",
    "tokenLogoCID()": "0c7b9990",
    "totalSupply()": "18160ddd",
    "transactionSizeMax()": "37c2aa16",
    "transfer(address,uint256)": "a9059cbb",
    "transferFrom(address,address,uint256)": "23b872dd"
  },
  "id": 81
}